:020000020000FC
:100000000C943F000C94B7530C9492530C94F753F8
:100010000C943E000C9417540C943E000C94D7534F
:100020000C943E000C943E000C943E000C943E0058
:100030000C943E000C9460490C9493490C943E003F
:100040000C943E000C943E000C943E000C943E0038
:100050000C9437540C943E000C943E000C943E00DB
:100060000C943E000C943E000C943E000C943E0018
:100070000C943E000C943E000C943E0018950FEF3B
:100080000DBF00E10EBF0E9444090E9434160E9479
:100090000D6700E00093B40700E00093B50700E0AF
:1000A0000093B60700E00093B70700270093E70727
:1000B00000270093F40700270093DD0700E000937A
:1000C000F50700E00093F60700E00093E1060093D7
:1000D000E2060093E30600270093C2070093C307DC
:1000E0000093C4070093C5070093C6070093C70792
:1000F0000093C8070093C9070093CA070093CB0772
:100100000093030800930408009305080093060871
:1001100000930708009308080093090800930A0851
:1001200000930B0800930C0800930D0800930E0831
:1001300000930F08009310080E943D6A0FE000939F
:10014000AB0600EA0093AC0600E00093AD06E3E0E6
:10015000F8E0E0930108F0930208E8E1F8E0E093AA
:100160001608F09317080027009333080E94BB1469
:100170000E94F3090E947D1A0E94652700913408AD
:10018000002312F40E94E96F78940E94C867093036
:1001900011F40E940A150E94652706E006BB0E9422
:1001A0001A490E94E0540E9405090E9420260E94DC
:1001B000140D0E94CF3B0E94670D0E949B3A0E9443
:1001C00042020E948A0A0E946B0C0E949F49009082
:1001D000F5071090F607011481F00091F5070093E0
:1001E000F6070090DE0700940092EC070090E40709
:1001F0001090EC0701280092E4070090E8071090A7
:10020000E90701240092EC070090DE0700940092B9
:10021000ED070090EC071090ED0701200092EC072D
:100220000090E4071090EC0701280092E40700908A
:10023000E8071090E80701200092E9070091E40721
:1002400000232AF400270093E4070E942B22009148
:10025000DE0700230AF4A3CF03B1009502950F70C7
:10026000013009F09CCF00E000936F00002700935D
:10027000F4070E94B10B0E94A95F8DCF0E946267B4
:1002800001E00093B20702E00093B30700E000939F
:10029000AE0701E00093AF07EF93FF93ECEFF3E0BD
:1002A0000E947765FF91EF9100E00093AE070EE0AA
:1002B0000093AF07EF93FF93EEE0F4E00E947765C1
:1002C000FF91EF91EAE9F0E00E94E5670E941C656A
:1002D00000E00093AE0707E10093AF07EF93FF93B1
:1002E000EEE1F4E00E947765FF91EF910E94E567EF
:1002F0000E941C6500E00093AE0700E20093AF0788
:10030000EF93FF93EEE2F4E00E947765FF91EF91A7
:100310000E94E5670E941C6500E00093AE0709E2B9
:100320000093AF07EF93FF93EEE3F4E00E9477654D
:10033000FF91EF910E94E5670E941C6500E0009329
:10034000AE0709E30093AF07EF93FF93EEE4F4E009
:100350000E947765FF91EF91E4E6F4E004E0019FED
:10036000E00DF11D05910093AE0705910093AF07D5
:1003700005910093B00704910093B10700E000934A
:10038000B2070E9495640E940D670E94DD670830E5
:1003900009F40895043021F41A950AF413E06ECF9D
:1003A000023029F41395143009F410E067CF0130BE
:1003B00021F5EAE9F0E002E0019FE00DF11DEF9385
:1003C000FF930E94E567E4E7F4E004E0019FE00D9D
:1003D000F11DC591D59105901590E02DF12D0E944C
:1003E0002F38A02DB12DFF91EF91EAE9F0E002E066
:1003F000019FE00DF11D0E94EC6740CF43616D65E8
:100400007261205374616220536574757000526F7D
:100410006C6C206761696E202020203A0000526FCA
:100420006C6C206F666673657420203A000050691A
:10043000746368206761696E2020203A000050696B
:10044000746368206F6666736574203A00004241E9
:10045000434B2050524556204E4558542043484166
:100460004E474500530D6E1653166E1F531F6E28D0
:1004700053286E310083007D000064000083007DFE
:10048000000064000091420801300CF496C0009115
:10049000420802300CF401C02CC0B0915505A09167
:1004A0005605D09157050E945058B0935505A0931A
:1004B0005605D093570500E00093400504E00093F3
:1004C000410500E70093420510915505209156051E
:1004D000309157054091400550914105609142058A
:1004E0000E9488687093D2068093D3062092D40627
:1004F00064C003E00093400508EE0093410500E06E
:1005000000934205309158054091590550915A0584
:10051000609140057091410580914205580F471F39
:10052000361F309358054093590550935A05309122
:100530005B0540915C0550915D05609140057091AF
:10054000410580914205580F471F361F30935B05C8
:1005500040935C0550935D0500E00093400502E088
:100560000093410508E3009342051091580520913E
:10057000590530915A0540914005509141056091CF
:1005800042050E9488687093CC068093CD06209225
:10059000CE0610915B0520915C0530915D05409180
:1005A000400550914105609142050E948868709312
:1005B000D2068093D3062092D4060091CC060093F5
:1005C000D5060091CD060093D6060091CE06009385
:1005D000D7061091B7062091B8063091B906409120
:1005E000C9065091CA066091CB060E948868709334
:1005F000400580934105209242053091D5064091F7
:10060000D6065091D70660914005709141058091C2
:100610004205580F471F361F3093D5064093D60624
:100620005093D7060091D2060093D8060091D306C6
:100630000093D9060091D4060093DA061091BA0609
:100640002091BB063091BC064091CF065091D00658
:100650006091D1060E94886870934005809341059F
:10066000209242053091D8064091D9065091DA0681
:10067000609140057091410580914205580F471FD8
:10068000361F3093D8064093D9065093DA0600E01F
:100690000093400500934105009342053091C9063F
:1006A0004091CA065091CB0660914005709141057A
:1006B0008091420558174707360709F4A3C03091C7
:1006C000CF064091D0065091D106609140057091BF
:1006D00041058091420558174707360709F492C033
:1006E000009141080023CAF00091D506009330061E
:1006F0000091D606009331060091D706009332068A
:100700000091D806009333060091D9060093340671
:100710000091DA06009335065DC03091D506409110
:10072000D6065091D7066091D8067091D90680916F
:10073000DA06581B470B360B3093300640933106D0
:10074000509332063091D5064091D6065091D70687
:100750006091D8067091D9068091DA06580F471F2C
:10076000361F30933306409334065093350608E025
:100770000093400508E90093410500E0009342051D
:10078000309130064091310650913206609140051B
:100790007091410580914205580F471F361F3093D5
:1007A0003006409331065093320630913306409123
:1007B0003406509135066091400570914105809155
:1007C0004205581B470B360B3093330640933406D3
:1007D000509335060091CC06009360060091CD063B
:1007E000009361060091CE06009362060091D20646
:1007F000009363060091D306009364060091D4062B
:100800000093650608950091320700933707009121
:10081000330700933807009134070093390700919C
:10082000350700933A070091360700933B07089578
:10083000309032074090330750903407609035076E
:10084000709036072091320730913307409134077A
:1008500050913507609136070E949769B0935F0702
:10086000C0936007D0936107E0936207F09363073A
:1008700030905F074090600750906107609062077A
:100880007090630701E00E94306A30925F074092E7
:10089000600750926107609262077092630701E0FF
:1008A0000093640700E00093650700E0009366078B
:1008B00000E00093670700E000936807309064074A
:1008C00040906507509066076090670770906807D2
:1008D00020915F0730916007409161075091620756
:1008E00060916307761A650A540A430A320A309205
:1008F0003C0740923D0750923E0760923F0770923E
:1009000040070895B0933207A0933307D09334077C
:10091000C0933507F0933607309032074090330785
:100920005090340760903507709036072091230768
:1009300030912407409125075091260760912707A1
:100940000E949769B0933207C0933307D09334075E
:10095000E0933507F09336070895EE27FF27CD2F54
:10096000DA2FAB2FBB2312F4BFEF0895BB270895F6
:100970004ADF5EDF3090550740905607509057078A
:10098000609058077090590720913C0730913D07BF
:1009900040913E0750913F07609140070E94976940
:1009A000B0937307C0937407D0937507E0937607ED
:1009B000F093770730905A0740905B0750905C07A0
:1009C00060905D0770905E0720913707309138077F
:1009D0004091390750913A0760913B070E9497690F
:1009E000B0935F07C0936007D0936107E0936207FD
:1009F000F093630730907307409074075090750729
:100A0000609076077090770720915F0730916007BC
:100A1000409161075091620760916307761A650AF9
:100A2000540A430A320A3092730740927407509274
:100A3000750760927607709277073090550740905F
:100A400056075090570760905807709059072091AB
:100A50003707309138074091390750913A07609134
:100A60003B070E949769B0937807C0937907D093AA
:100A70007A07E0937B07F0937C0730905A07409009
:100A80005B0750905C0760905D0770905E07209157
:100A90003C0730913D0740913E0750913F076091E0
:100AA00040070E949769B0935F07C0936007D09397
:100AB0006107E0936207F0936307309078074090F6
:100AC000790750907A0760907B0770907C0720919F
:100AD0005F07309160074091610750916207609114
:100AE0006307760E651E541E431E321E3092780731
:100AF0004092790750927A0760927B0770927C0748
:100B00000895F894A0918400B09185007894E091C4
:100B10004608F0914708A0934608B0934708AE1BDB
:100B2000BF0B2AF4E0E0F0E0EA1BFB0BDF01DD275E
:100B3000B695A795D795B695A795D795B695A79548
:100B4000D795B695A795D795CC27FF27B0932D07B6
:100B5000A0932E07D0932F07C0933007F09331074F
:100B600030902D0740902E0750902F07609030074F
:100B700070903107209128073091290740912A076A
:100B800050912B0760912C070E949769B09323071F
:100B9000C0932407D0932507E0932607F0932707F7
:100BA000B0917305A0917405D0917505D7DEAADECA
:100BB0000091460700935507009147070093560799
:100BC0000091480700935707009149070093580781
:100BD00000914A070093590700914B0700935A0769
:100BE00000914C0700935B0700914D0700935C0751
:100BF00000914E0700935D0700914F0700935E0739
:100C0000B7DE0091730700934607009174070093C5
:100C100047070091750700934807009176070093F6
:100C200049070091770700934A07009178070093DE
:100C30004B070091790700934C0700917A070093C6
:100C40004D0700917B0700934E0700917C070093AE
:100C50004F07B0917005A0917105D09172057EDEAD
:100C600051DE009141070093550700914207009320
:100C700056070091430700935707009144070093DC
:100C80005807009145070093590700914B070093BF
:100C90005A0700914C0700935B0700914D070093A2
:100CA0005C0700914E0700935D0700914F0700938A
:100CB0005E075EDE009173070093410700917407A1
:100CC0000093420700917507009343070091760750
:100CD0000093440700917707009345070091780738
:100CE00000934B070091790700934C0700917A0716
:100CF00000934D0700917B0700934E0700917C07FE
:100D000000934F07B0916405A0916505D0916605E9
:100D100025DEF8DD00914107009355070091420759
:100D2000009356070091430700935707009144072B
:100D30000093580700914507009359070091460713
:100D400000935A070091470700935B0700914807FB
:100D500000935C070091490700935D0700914A07E3
:100D600000935E0705DE0091730700934107009131
:100D700074070093420700917507009343070091A1
:100D80007607009344070091770700934507009189
:100D90007807009346070091790700934707009171
:100DA0007A070093480700917B0700934907009159
:100DB0007C0700934A07089530904107409042070E
:100DC0005090430760904407709045072091410779
:100DD0003091420740914307509144076091450785
:100DE0000E949769B0935F07C0936007D093610733
:100DF000E0936207F09363073090460740904707FF
:100E0000509048076090490770904A072091460724
:100E100030914707409148075091490760914A0730
:100E20000E949769B0936407C0936507D0936607E3
:100E3000E0936707F093680730905F074090600782
:100E4000509061076090620770906307209164077B
:100E50003091650740916607509167076091680778
:100E6000760E651E541E431E321E30925F0740925E
:100E7000600750926107609262077092630730903A
:100E80004B0740904C0750904D0760904E07709074
:100E90004F0720914B0730914C0740914D075091DF
:100EA0004E0760914F070E949769B0936407C09303
:100EB0006507D0936607E0936707F0936807309063
:100EC0005F074090600750906107609062077090E4
:100ED0006307209164073091650740916607509140
:100EE000670760916807760E651E541E431E321E0A
:100EF0003092500740925107509252076092530728
:100F00007092540708950091410700936E07009175
:100F1000420700936F070091430700937007009109
:100F200044070093710700914507009372072ED084
:100F30000091BD060093B7060091BE060093B80667
:100F40000091BF060093B9060091460700936E0713
:100F50000091470700936F070091480700937007BF
:100F6000009149070093710700914A0700937207A7
:100F70000DD00091BD060093BA060091BE06009305
:100F8000BB060091BF060093BC0608950AE50093D6
:100F9000640700E00093650700E00093660700E047
:100FA0000093670700E00093680730906E07409059
:100FB0006F075090700760907107709072072091D2
:100FC000640730916507409166075091670760910B
:100FD00068070E949769B0935F07C0936007D0933A
:100FE0006107E0936207F0936307B0915F07A091F8
:100FF0006007D0916107C0916207F0916307AFDC91
:10100000B093BD06A093BE06D093BF0608950E947C
:10101000626701E00093B20702E00093B30700E0CB
:101020000093AE0701E00093AF07EF93FF93EAE967
:10103000F1E10E947765FF91EF91EEE8F0E00E9408
:10104000F367BB270E941C6500E00093AE07009089
:10105000AF0709E0000E0092AF07EF93FF93E8EAB5
:10106000F1E10E947765FF91EF910E94F3670E9482
:101070001C6500E00093AE070090AF0709E0000E8A
:101080000092AF07EF93FF93E6EBF1E10E947765E3
:10109000FF91EF910E94F3670E941C6500E00093AE
:1010A000AE070090AF0709E0000E0092AF07EF9384
:1010B000FF93E4ECF1E10E947765FF91EF910E94CC
:1010C000F3670E941C6500E00093AE070090AF0735
:1010D00009E0000E0092AF07EF93FF93E2EDF1E11C
:1010E0000E947765FF91EF910E94F3670E941C6553
:1010F00000E00093AE0709E30093AF07EF93FF937F
:10110000E0EEF1E10E947765FF91EF91E6EFF1E10A
:1011100004E0019FE00DF11D05910093AE070591DC
:101120000093AF0705910093B00704910093B107B6
:1011300000E00093B2070E9495640E940D670E9430
:10114000DD67083009F40895043021F41A950AF493
:1011500014E05DCF023029F41395153009F410E046
:1011600056CF0130C9F4EEE8F0E001E0019FE00D58
:10117000F11D0E94F367C1E0D0E0E8E0F0E0B0E0EC
:101180000E942F38A02DB12DEEE8F0E001E0019F84
:10119000E00DF11D0E94FF673ACF526F6C6C202862
:1011A00041696C2920203A00506974636820284501
:1011B0006C6529203A005468726F74746C65202045
:1011C00020203A0059617720285275642920202078
:1011D0003A004155582020202020202020203A008D
:1011E0004241434B2050524556204E4558542043CF
:1011F00048414E4745004D0055094D0955124D12C5
:10120000551B4D1B55244D24552D00E000934005E2
:1012100000934105009342053091AB064091AC0626
:101220005091AD0660914005709141058091420555
:1012300058174707360759F03091AB064091AC0676
:10124000415030403093AB064093AC060895009176
:10125000D10700231AF002E00093F5070091D207AE
:1012600000231AF003E00093F5070091D307002351
:101270001AF004E00093F5070091D40700231AF058
:1012800005E00093F507089502E301B90AE004B907
:101290000CEF07B902EF0AB90FEF00937E0005EFDC
:1012A00005B903E008B90DE00BB9ACE3B0E00E946A
:1012B000B5670E94C867023011F4A7E003C006308A
:1012C00039F4A3E003EF0AB90E94D26F02EF0AB922
:1012D00000E00093800002E00093810000E00093B2
:1012E000820005E10093690007E00DBBE0EDF0E04E
:1012F0000E94516800934B0800914B08002322F490
:101300000FEF00934A0806C0EFECF0E00E9451682E
:1013100000934A080027009335080093360800938D
:101320003708009338080093FC0700933408E6E977
:10133000F0E00E941B6800933908013021F40FEFA0
:101340000093FC0721C0023051F40FEF00933508E1
:10135000009336080093FC070093340815C003304F
:1013600051F40FEF00933508009337080093FC0702
:101370000093340809C0043039F40FEF00933808A3
:101380000093FC070093340800913408002322F4F2
:1013900002E00093680003C00AE00093680001E0E7
:1013A0000093730001E000936C000091B9000C7F82
:1013B0000093B90001E10093B8005D9A5C9A5E98D1
:1013C0002B9A299AA4EFB1E00E94B5672B9829982F
:1013D0005E9AA4E6B0E00E94B5670895089507EE0E
:1013E0000A95F1F708950E94626701E00093B20741
:1013F00002E00093B30700E00093AE0709E000931A
:10140000AF07EF93FF93E6E8F4E10E947765FF9161
:10141000EF9100E00093AE0703E10093AF07EF9375
:10142000FF93E4E9F4E10E947765FF91EF9100E01A
:101430000093AE070DE10093AF07EF93FF93E8EA47
:10144000F4E10E947765FF91EF910E940D67A8EE8D
:10145000B3E00E94B56708950E94F30900E000938D
:10146000AE0709E30093AF07EF93FF93E6E1FDE9D1
:101470000E947765FF91EF910E940D670E94C867F7
:101480000830E1F7089548572056657220322E3112
:101490002E58000046572056657220312E313753A2
:1014A000312B2B2050726F00537465766569730081
:1014B0000E94626701E00093B20702E00093B30765
:1014C00004E10093AE0709E10093AF07EF93FF93A8
:1014D000E6E1FEE10E947765FF91EF9100E0009365
:1014E000AE0709E30093AF07EF93FF93E4E2FEE159
:1014F0000E947765FF91EF910E940D670E94DD6762
:10150000013009F008950027E0E0F0E00E945968FA
:101510000C943F0000E000934005009341050093C8
:10152000420530919F064091A0065091A10660911E
:1015300040057091410580914205581747073607CD
:1015400059F030919F064091A006415030403093B1
:101550009F064093A00603C000270093F307009066
:10156000DE071090E00701200092EC070091EC07E5
:101570000023B2F530919C0640919D0641503040C9
:1015800030939C0640939D0600E000934005009335
:1015900041050093420530919C0640919D06509173
:1015A0009E06609140057091410580914205581753
:1015B00047073607ACF403E000939C0600E2009373
:1015C0009D0600E000939E060FEF0093F30700E0F6
:1015D00000939F0604E10093A00600E00093A1069B
:1015E0000090DE071090DF0701240092EC070090C6
:1015F000DE071090DE0701200092DF070091EC0764
:1016000000233AF400E00093AE060093AF06009387
:10161000B00600E00093400500E00093410501E0C2
:10162000009342053091AE064091AF065091B0064E
:10163000609140057091410580914205580F471F08
:10164000361F3093AE064093AF065093B0060DE7B9
:101650000093400500E00093410500E0009342053F
:101660003091AE064091AF065091B00660914005B2
:10167000709141058091420558174707360764F07D
:10168000009140050093AE06009141050093AF061E
:10169000009142050093B0060AE0009340050CEF6C
:1016A0000093410500E8009342053091AE06409159
:1016B000AF065091B0066091400570914105809150
:1016C0004205581747073607B4F13091B1064091EB
:1016D000B206415030403093B1064093B20600E06C
:1016E0000093400500934105009342053091B106F7
:1016F0004091B2065091B30660914005709141054A
:1017000080914205581747073607ACF407E000936D
:10171000B10600ED0093B20600E00093B3060FEFB0
:101720000093F30701E000939F0600E90093A006F1
:1017300000E00093A1060090F3071090F207012843
:101740000092EC070090EC071090F407012800923B
:10175000EC070091EC07002312F029980895299ACC
:1017600008950F93CF93299AC2E30E94BA672998EC
:10177000CF910F910895402F2A2F3B2F0E9462672F
:1017800001E00093B20705E00093B307203049F071
:101790000AE30093AE0700E00093AF0702E00E9467
:1017A0007D65022F0B5F041749F00AE30093AE0733
:1017B00002E30093AF0703E00E947D6502E000931F
:1017C000B30708E00093AF0715E0FE0104E1029FB4
:1017D000E00DF11D00E00093AE07A4E105910E9429
:1017E0007D65AA95D9F70090AF0708E0000E00923A
:1017F000AF071A9579F708E0039F002D095F009362
:10180000AF07075F0093B10700E00093AE070FE753
:101810000093B00700E00093B2070E94956400E0D7
:101820000093AE0709E30093AF07EF93FF93E0EC5B
:10183000F8E10E947765FF91EF910E940D67AEE19C
:101840000E94C867003011F0AA95D1F70E94C867BE
:101850000030E1F30E94B10B083019F4AA278894F4
:101860002BC0043061F4303019F03A950C945F0CC1
:10187000203019F02A950C945F0C0C945F0C023008
:1018800071F4343019F033950C945F0C042F05502B
:10189000201719F023950C945F0C0C945F0C013009
:1018A00071F40E9462670E940D670E94C867003051
:1018B000E1F7A22FA30F0894C22FD32F08955ECF74
:1018C0004241434B20205550202020444F574E206A
:1018D000454E5445520030919A0540919B055091D8
:1018E0009C0560919D0570919E0580919F05581BF8
:1018F000470B360B3093B5054093B6055093B705AB
:101900006091B5057091B6058091B70508E00E9419
:1019100079686093B5057093B6058093B7053091EB
:101920009D0540919E0550919F056091B505709170
:10193000B6058091B705580F471F361F30939D0598
:1019400040939E0550939F053091810640918206F9
:101950005091830660919D0570919E0580919F0531
:10196000581B470B360B3093B5054093B605509383
:10197000B7050AF455C06091B5057091B605809120
:10198000B70502E00E9479686093B5057093B605CB
:101990008093B70500E00093400500E10093410506
:1019A00000E0009342053091B5054091B605509195
:1019B000B705609140057091410580914205581727
:1019C0004707360764F0009140050093B505009184
:1019D00041050093B605009142050093B70530918B
:1019E000930640919406509195066091B5057091CB
:1019F000B6058091B705580F471F361F30939306E1
:101A00004093940650939506B0919306A091940646
:101A1000D0919506AA2322F00FEF0093F2070895C4
:101A200000270093F20708950091DE0700236AF172
:101A30003091B4064091B506415030403093B40621
:101A40004093B50600E000934005009341050093E4
:101A500042053091B4064091B5065091B6066091AA
:101A60004005709141058091420558174707360798
:101A700064F40FEF0093E40701E00093B40600E97B
:101A80000093B50600E00093B6060090E5071090BD
:101A9000E70701200092EC070090E5070094009210
:101AA000EE070090EE071090E80701200092ED0786
:101AB0000090EC071090ED0701280092E6070091D6
:101AC000DE07002312F02B9808952B9A08951091A9
:101AD000C6062091C7063091C80640917B065091FA
:101AE0007C0660917D060E94886870934005809313
:101AF00041052092420500917E0600936606009102
:101B00007F06009367060091800600936806309177
:101B100040054091410550914205609166067091E3
:101B200067068091680658174707360764F00091EA
:101B300066060093400500916706009341050091F9
:101B40006806009342056091660670916706809171
:101B50006806552744273327581B470B360B30930D
:101B600066064093670650936806309140054091A1
:101B7000410550914205609166067091670680911B
:101B8000680658174707360764F400916606009305
:101B90004005009167060093410500916806009397
:101BA000420530914F05409150055091510560918B
:101BB00040057091410580914205581B470B360B3B
:101BC00030934F0540935005509351050895C6E852
:101BD000DCE1A091B707B091B60704E10E94BB0B0E
:101BE000C093B707D093B60708F008950E946267C4
:101BF00001E00093B20702E00093B30704E1009311
:101C0000AE0709E10093AF07EF93FF93E6E1FEE132
:101C10000E947765FF91EF9100E00093AE0709E322
:101C20000093AF07EF93FF93E4E2FEE10E94776534
:101C3000FF91EF910E940D670E94DD67013009F06E
:101C4000C6CF299AA0934808EAE3FEE100E40A9F80
:101C5000E00DF11DDF01C4E0D0E010E4FD010491CE
:101C6000FE010E943368119621961A95B9F72998BA
:101C7000A0914808EEEAF0E00E94FF670E94652705
:101C80000E948912A4CF53696E676C65436F7074AC
:101C9000657220324D203253202053696E676C6587
:101CA000436F7074657220314D2034532020447589
:101CB000616C436F707465722020202020202020EA
:101CC0002020547269436F70746572205365727678
:101CD0006F204D342020547269436F7074657220F8
:101CE000536572766F204D372020593620202020F2
:101CF000202020202020202020202020202051755E
:101D00006164726F436F70746572202B206D6F6415
:101D1000652051756164726F436F707465722078CD
:101D2000206D6F646520583820202020202020203E
:101D30002020202B206D6F64652058382020202023
:101D40002020202020202078206D6F6465204865A9
:101D50007861436F707465722020202B206D6F6452
:101D6000652048657861436F707465722020207823
:101D7000206D6F6465204F63746F436F707465727C
:101D80002020202B206D6F6465204F63746F436F9C
:101D90007074657220202078206D6F64652048364D
:101DA0002020202020202020202020202020202033
:101DB00020204838202020202020202020202020E3
:101DC00020202020202056362020202020202020C7
:101DD00020202020202020202020563820202020B5
:101DE00020202020202020202020202020205934A6
:101DF00020202020202020202020202020202020E3
:101E00002020562D5461696C202020202020202085
:101E100020202020202041726520796F7520737565
:101E200072653F0043414E43454C20202020202036
:101E30002020202020205945530064000064000326
:101E400000006400009C00030000006400003200F9
:101E500000000000640032000000000000000000EC
:101E60000000000000000000000000000000000072
:101E700000000000000000000000640000000003FB
:101E8000000000640064320000000000646432005E
:101E90000000009C00643200000000009C643200DE
:101EA0000000000000000000000000000000000032
:101EB0000000000000000000000064640000000357
:101EC0000000649C00000003000000006464000047
:101ED000000000009C640000000000000000000002
:101EE00000000000000000000000000000000000F2
:101EF0000000000000000000000064A932000003A0
:101F00000000645732FF0003000064009C000003DF
:101F1000000000000064320000000000000000002B
:101F200000000000000000000000000000000000B1
:101F30000000000000000000000064A9320000035F
:101F40000000645732FF0003000064009C0000039F
:101F50000000000000000000000000000000000081
:101F600000000000000000000000000000643200DB
:101F70000000000000000000000064A932640003BB
:101F8000000064A9329C000300006457326400031F
:101F900000006457329C0003000064009C6400034E
:101FA000000064009C9C0003000000000000000092
:101FB00000000000000000000000640064640003F2
:101FC00000006464009C0003000064009C64000343
:101FD0000000649C009C0003000000000000000062
:101FE00000000000000000000000000000000000F1
:101FF0000000000000000000000064B94764000316
:1020000000006447479C000300006447B964000374
:10201000000064B9B99C000300000000000000004B
:1020200000000000000000000000000000000000B0
:102030000000000000000000000064006464000371
:1020400000006400649C00030000646400640003FA
:1020500000006464009C0003000064009C640003B2
:10206000000064009C9C00030000649C006400036A
:102070000000649C009C0003000064B947640003F6
:10208000000064B9479C00030000644747640003F4
:1020900000006447479C000300006447B9640003E4
:1020A00000006447B99C0003000064B9B9640003F0
:1020B000000064B9B99C000300006400646400037C
:1020C00000006457329C000300006457CE64000394
:1020D000000064009C9C0003000064A9CE6400031F
:1020E000000064A9329C0003000000000000000012
:1020F000000000000000000000006432576400038C
:1021000000006464009C000300006432A9640003C2
:10211000000064CEA99C00030000649C00640003DE
:10212000000064CE579C0003000000000000000087
:102130000000000000000000000064006464000370
:1021400000006447479C00030000646400640003CF
:1021500000006447B99C0003000064009C64000315
:10216000000064B9B99C00030000649C0064000393
:10217000000064B9479C0003000064265C6400030F
:102180000000645C269C00030000645CDA640003C9
:1021900000006426A49C0003000064DAA464000329
:1021A000000064A4DA9C0003000064A42664000319
:1021B000000064DA5C9C000300006447476400038D
:1021C00000006447009C000300006447B9640003FA
:1021D000000064B9B99C0003000064B90064000306
:1021E000000064B9479C00030000000000000000EC
:1021F0000000000000000000000064474764000386
:1022000000006447189C000300006447E864000372
:1022100000006447B99C0003000064B9B96400037E
:10222000000064B9E89C0003000064B9186400036E
:10223000000064B9479C0003000064644764000325
:1022400000006447009C00030000642AB964000396
:10225000000064D6B99C0003000064B90064000368
:102260000000649C479C0003000000000000000088
:1022700000000000000000000000646447640003E8
:1022800000006451189C00030000643DE8640003F2
:102290000000642AB99C0003000064D6B9640003FE
:1022A000000064C3E89C0003000064AF18640003EE
:1022B0000000649C479C0003000064B9476400036D
:1022C00000006447479C0003000064009C64000316
:1022D000000064009C9C000300000000000000005F
:1022E00000000000000000000000000000000000EE
:1022F0000000000000000000000064B94700000377
:102300000000644747FF000300007800A664000354
:1023100000007800A69C0003000000000000000000
:1023200000000000000000000000000000000000AD
:10233000000000000000000000000E94626701E051
:102340000093B20702E00093B30700E00093AE07EA
:1023500001E00093AF07EF93FF93E4EAF4E20E94F9
:102360007765FF91EF91E2E7F0E00E94E5670E9458
:102370001C6500E00093AE070090AF0709E0000E77
:102380000092AF07EF93FF93EEEAF4E20E947765C5
:10239000FF91EF910E94E5670E941C6500E00093A9
:1023A000AE070090AF070CE0000E0092AF07EF936E
:1023B000FF93E8EBF4E20E947765FF91EF910E94B2
:1023C000E5670E941C6500E00093AE070090AF0730
:1023D00009E0000E0092AF07EF93FF93EAECF4E2FE
:1023E0000E947765FF91EF910E94E5670E941C654E
:1023F00000E00093AE0709E30093AF07EF93FF936C
:10240000ECEDF4E20E947765FF91EF91E2EFF4E2E8
:1024100004E0019FE00DF11D05910093AE070591C9
:102420000093AF0705910093B00704910093B107A3
:1024300000E00093B2070E9495640E940D670E941D
:10244000DD67083009F40895043021F41A950AF480
:1024500013E073CF023029F41395143009F410E01F
:102460006CCF0130F1F4E2E7F0E002E0019FE00D13
:10247000F11DEF93FF930E94E567E2E0F5E204E0CF
:10248000019FE00DF11DC591D59105901590E02DAE
:10249000F12D0E942F38A02DB12DFF91EF910E94B8
:1024A000EC674BCF50204761696E20203A005020E6
:1024B0006C696D6974203A00414343205472696D20
:1024C00020526F6C6C20203A00004143432054722C
:1024D000696D205069746368203A00004241434BA3
:1024E0002050524556204E455854204348414E47AF
:1024F000450035004F0935094F125F157F1E5F1EDD
:102500007F270000007D0000007D18FCE80318FC18
:10251000E80344240E94626700E00093AE0700E0F5
:102520000093AF0702E00093B30701E00093B20706
:10253000EF93FF93E2E3F9E20E947765FF91EF9159
:102540004420A1F4EF93FF93EAE3F9E20E94776558
:10255000FF91EF910FEF602E08E0802E55240E942E
:10256000EB1253948A948820D1F709C0542C5A94C2
:10257000A42DBB270E941C6566240E94EB1202E07A
:102580000093B30701E00093B20700E00093AE07A9
:1025900009E30093AF07EF93FF93E6E4F9E20E94AB
:1025A0007765FF91EF910E940D670E94DD6708300B
:1025B00009F40895043031F4439409E0401609F415
:1025C0004424A8CF023031F44A94442012F408E0A5
:1025D000402EA0CF9FCFE0E0F5E008E0059DE00DA4
:1025E000F11D01E00093B2070FEF702EDD27A181EE
:1025F000BB27AA2312F4DFEFBFEFB0931B06A09313
:102600001C06D0931D0600E0009340050093410591
:102610000093420530911B0640911C0650911D0607
:102620006091400570914105809142055817470718
:10263000360709F0772400E00093400500E000939E
:10264000410500E40093420510911B0620911C06F1
:1026500030911D0640914005509141056091420521
:102660000E94886870931B0680931C0620921D06AA
:1026700000E00093400500E60093410500E0009370
:10268000420530911B0640911C0650911D06609139
:1026900040057091410580914205580F471F361F34
:1026A00030931B0640931C0650931D06B0911B06E9
:1026B000A0911C06D0911D06A093AE07DD27A28134
:1026C000BB27AA2312F4DFEFBFEFB0931B06A09342
:1026D0001C06D0931D0600E00093400500934105C1
:1026E0000093420530911B0640911C0650911D0637
:1026F0006091400570914105809142055817470748
:10270000360709F077240FEF009340050FEF009391
:10271000410500EC0093420510911B0620911C0618
:1027200030911D0640914005509141056091420550
:102730000E94886870931B0680931C0620921D06D9
:1027400000E00093400500E20093410500E00093A3
:10275000420530911B0640911C0650911D06609168
:1027600040057091410580914205580F471F361F63
:1027700030931B0640931C0650931D06B0911B0618
:10278000A0911C06D0911D06A093AF07DD27A08164
:10279000BB27AA2312F4DFEFBFEFB0931B06A09371
:1027A0001C06D0931D0600E00093400500934105F0
:1027B0000093420530911B0640911C0650911D0666
:1027C0006091400570914105809142055817470777
:1027D000360709F07724A381AA2309F0772477200C
:1027E00092F466200AF4089502E40093AE070BE128
:1027F0000093AF07EF93FF93EAE2F9E20E94776557
:10280000FF91EF910895A581A0FD11C0662072F09F
:1028100002E40093AE070BE10093AF07EF93FF9341
:10282000EEE3F9E20E947765FF91EF91089500E6EB
:102830000093B00700E20093B1070E94396600914F
:10284000AE0704500093AE070091AF070750009306
:10285000AF0705E00093B30704E0A381AA230AF0C1
:1028600005E00E947D650091AE070E500093AE0713
:102870000090AF0705E0000E0092AF0700E0009364
:10288000B30700E00093B207052D0E947D65662026
:102890000AF44AC002E00093B30701E00093B207D4
:1028A00000E00093AE070FE00093AF07EF93FF93B4
:1028B000EAE5F9E20E947765FF91EF9100E000936D
:1028C000AE0708E10093AF07EF93FF93E4E6F9E268
:1028D0000E947765FF91EF9100E00093AE0701E25F
:1028E0000093AF07EF93FF93EEE6F9E20E9477655E
:1028F000FF91EF9100E00093AE070AE20093AF076B
:10290000A381AA234AF0EF93FF93E2E5F9E20E9444
:102910007765FF91EF9108C0EF93FF93E6E5F9E249
:102920000E947765FF91EF910895556E7573656408
:102930002E004D6F746F723A2000414C4C0053656D
:1029400072766F2E00004241434B20204E45585472
:1029500000004357000043435700446972656374A5
:10296000696F6E007365656E2066726F6D006162DF
:102970006F76653A00000BE60093AA0720E80E94F4
:102980007B64A2E3B0E00E94B5670BE60093AA0760
:1029900021E00E947B640AE10093AA07E5EAF0E0E7
:1029A0000E941B6800933E08202F0E947B640BE16D
:1029B0000093AA07E3EAF0E00E941B6800933A083C
:1029C000202F0E947B640CE10093AA07E4EAF0E068
:1029D0000E941B6800933B08202F0E947B64A2E3A7
:1029E000B0E00E94B56708950AE10093AA070E942B
:1029F000AB6200933E080BE10093AA070E94AB6212
:102A000000933A080CE10093AA070E94AB6200937E
:102A10003B0808950E94626701E00093B20702E05C
:102A20000093B30701E00093AE0709E10093AF07FD
:102A3000EF93FF93E2E5FCE20E947765FF91EF914F
:102A400000E00093AE070E940D6700E00093D707F7
:102A500000E00093D80701E00093DA0708E0009354
:102A6000D9070FEF0093DE0700E00093990601E01D
:102A700000939A0600E000939B062B9A06E006BBA3
:102A80000E941A490E94E05400270093E00700E0EA
:102A90000093400508EC0093410500E000934205D7
:102AA00030914F054091500550915105609140057E
:102AB0007091410580914205581B470B360B3093AE
:102AC0004005409341055093420500E0009366069F
:102AD00000936706009368063091400540914105D8
:102AE0005091420560916606709167068091680674
:102AF0005817470736073CF400E000934005009361
:102B000041050093420500E00093660606E000934D
:102B1000670600E00093680610914005209141058A
:102B200030914205409166065091670660916806B3
:102B30000E94886870934005809341052092420569
:102B400000E00093660608E5009367060CEC00932E
:102B500068063091400540914105509142056091D1
:102B600066067091670680916806580F471F361FEA
:102B70003093400540934105509342050091400534
:102B800000931E060091410500931F060091420527
:102B90000093200600914005009321060091410515
:102BA0000093220600914205009323060091400500
:102BB00000932406009141050093250600914205EB
:102BC00000932606009140050093270600914105D9
:102BD00000932806009142050093290600914005C4
:102BE00000932A060091410500932B0600914205AF
:102BF00000932C060091400500932D06009141059D
:102C000000932E060091420500932F060091400587
:102C10000093300600914105009331060091420572
:102C20000093320600914005009333060091410560
:102C30000093340600914205009335060E949F4997
:102C400003B1009502950F70093009F419CF2B9844
:102C500008955468726F74746C6520706173732D7D
:102C60007468726F75676800E0E0F0E00E94516878
:102C70003196093181F40E9451683196033059F43C
:102C80000E9451683196033731F40E9451683196A1
:102C9000073109F40895002700934A080E9462163C
:102CA0000FEF00934A080E94621615E00E94B10BD4
:102CB000C0E00E94BA671A95C9F70E94F7600E94A7
:102CC000E70D0895E0E0F0E009E10E9433683196F5
:102CD00003E00E943368319603E70E94336831961F
:102CE00007E10E9433683196A4E0B0E0CAE9DFE270
:102CF00010E4FE010491FD010E94336811962196B3
:102D00001A95B9F7A4E4B0E0CAEDDFE218E1FE01DC
:102D10000491FD010E943368119621961A95B9F726
:102D2000A6E8B0E0C2EFDFE218E0FE010491FD0189
:102D30000E943368119621961A95B9F7AAE0B0E07F
:102D4000EAE7F0E00E94EC67A4E2B0E0E0E7F0E040
:102D50000E94EC67ABE4B0E0E2E7F0E00E94EC67D1
:102D6000A4E1B0E0E4E7F0E00E94EC67A0E0B0E0AE
:102D7000ECE7F0E00E94EC67AEE1B0E0EEE7F0E0F7
:102D80000E94EC67A0E0B0E0E0E8F0E00E94EC67B1
:102D9000A2E3B0E0E2E8F0E00E94EC67A8E0B0E077
:102DA000E4E8F0E00E94EC67A0E0B0E0E6E7F0E0E5
:102DB0000E94EC67A0E0B0E0E8E7F0E00E94EC677A
:102DC000A1E0B0E0EEE8F0E00E94FF67A2E0B0E032
:102DD000EFE8F0E00E94FF67A3E0B0E0E0E9F0E098
:102DE0000E94FF67A4E0B0E0E1E9F0E00E94FF6725
:102DF000A5E0B0E0E2E9F0E00E94FF67A0E0B0E00B
:102E0000EAE9F0E00E94EC67A2E3B0E0ECE9F0E070
:102E10000E94EC67A0E0B0E0EEE9F0E00E94EC6711
:102E2000A2E3B0E0E0EAF0E00E94EC67AA27E3E961
:102E3000F0E00E94FF670FEFA02FE4E9F0E00E94AE
:102E4000FF670FEFA02FE5E9F0E00E94FF67AA27D8
:102E5000E9E9F0E00E94FF67AA27E6E9F0E00E94B6
:102E6000FF67A8E0B0E0E3EAF0E00E94FF67A8E0B7
:102E7000B0E0E4EAF0E00E94FF67A0E0B0E0E5EA3D
:102E8000F0E00E94FF67A1E0B0E0E6EAF0E00E9417
:102E9000FF67AA27E7EAF0E00E94FF67AA27EDEAAA
:102EA000F0E00E94FF67AA27E2EAF0E00E94FF67D5
:102EB0000FEFA02FEFECF0E00E94FF67AA27E0EDF4
:102EC000F0E00E94FF67AA27E8EAF0E00E94FF67AF
:102ED000AA27E9EAF0E00E94FF670FEFA02FE8E9D8
:102EE000F0E00E94FF67AA27EAEAF0E00E94FF678D
:102EF000AA27E7E9F0E00E94FF67AFEFEEEAF0E013
:102F00000E94FF67A0E0B0E0EBEAF0E00E94EC670F
:102F1000A0E0B0E0EFEAF0E00E94EC67E3EBF0E065
:102F20000E94EC67E7EBF0E00E94EC67EBEBF0E06F
:102F30000E94EC67EFEBF0E00E94EC67E3ECF0E05E
:102F40000E94EC67E7ECF0E00E94EC67EBECF0E04D
:102F50000E94EC67A4E6B0E0E1EBF0E00E94EC67D1
:102F6000E5EBF0E00E94EC67E9EBF0E00E94EC6733
:102F7000EDEBF0E00E94EC67E1ECF0E00E94EC6722
:102F8000E5ECF0E00E94EC67E9ECF0E00E94EC6711
:102F9000EDECF0E00E94EC670895000000000000F6
:102FA0000000000000000000000000000000000021
:102FB0000000000000000000000000000000000011
:102FC0000000000000000000000000000000000001
:102FD00000000000000000000000410064001E002E
:102FE0001400410064001E0014004100140032006F
:102FF0000A001E001E002D005A000E94626701E0B8
:103000000093B20702E00093B30700E00093AE071D
:1030100001E00093AF07EF93FF93ECE2F6E30E9429
:103020007765FF91EF9100E00093AE070090AF0746
:1030300009E0000E0092AF07EF93FF93E2E4F6E39E
:103040000E947765FF91EF9100E00093AE0700903A
:10305000AF0709E0000E0092AF07EF93FF93E6E59C
:10306000F6E30E947765FF91EF9100E00093AE07D1
:103070000090AF0709E0000E0092AF07EF93FF93B7
:10308000E6E6F6E30E947765FF91EF9100E000939A
:10309000AE070090AF0709E0000E0092AF07EF9374
:1030A000FF93ECE7F6E30E947765FF91EF9100E074
:1030B0000093AE070090AF0709E0000E0092AF0743
:1030C000EF93FF93EEE8F6E30E947765FF91EF91AF
:1030D00000E00093AE0709E30093AF07EF93FF937F
:1030E000E6E1F6E30E947765FF91EF910E940D679C
:1030F0000E94DD670130E1F7A5E3B0E00E9462675E
:1031000000E00093AE0701E00093AF07EF93FF9359
:10311000E4EAF6E30E947765FF91EF9100E0009307
:10312000AE070090AF0709E0000E0092AF07EF93E3
:10313000FF93E2EBF6E30E947765FF91EF9100E0E9
:103140000093AE070090AF0709E0000E0092AF07B2
:10315000EF93FF93E2ECF6E30E947765FF91EF9126
:1031600000E00093AE070090AF0709E0000E009268
:10317000AF07EF93FF93ECECF6E30E947765FF91C6
:10318000EF9100E00093AE070090AF0709E0000E5A
:103190000092AF07EF93FF93EAEDF6E30E947765A5
:1031A000FF91EF9100E00093AE070090AF0709E0B8
:1031B000000E0092AF07EF93FF93E8EEF6E30E9454
:1031C0007765FF91EF9108E70093AE0701E0009368
:1031D000AF070A2F0E947D6505E50093AE0709E061
:1031E000B09F002D065F0093AF07EF93FF93E6EFCC
:1031F000F6E30E947765FF91EF910E940D67D7E09B
:10320000C0E00E94BA67DA95D9F7B395B53009F0F6
:1032100075CFB0E0AA95AF3209F070CF0E94626717
:1032200009E10093AE0709E10093AF07EF93FF9325
:10323000EAEFF6E30E947765FF91EF910E940D6738
:10324000C0E00E94BA67E0E100E0009388050093C7
:10325000890500938A0500E000938B0500938C0597
:1032600000938D0500E000938E0500938F05009379
:1032700090050E941962309188054091890550910E
:103280008A0560917F057091800580918105580FB6
:10329000471F361F309388054093890550938A0550
:1032A00030918B0540918C0550918D056091820580
:1032B0007091830580918405580F471F361F309306
:1032C0008B0540938C0550938D0530918E05409170
:1032D0008F055091900560918505709186058091CC
:1032E0008705580F471F361F30938E0540938F0573
:1032F00050939005C4E60E94BA67EA9509F0B9CFE9
:10330000609188057091890580918A0504E00E948A
:103310007968609388057093890580938A05609128
:103320008B0570918C0580918D0504E00E94796871
:1033300060938B0570938C0580938D0560918E054D
:1033400070918F058091900504E00E9479686093E8
:103350008E0570938F0580939005D8E2C0E00E949F
:10336000BA67DA95D9F70E9462670FEF0093EB070F
:1033700000E00093AE070AE00093AF07EF93FF93DE
:10338000E2E0F4EC0E947765FF91EF91B09188053F
:10339000A0918905D0918A050E941C650E94D06188
:1033A00000E00093AE0703E10093AF07EF93FF93B4
:1033B000ECE0F4EC0E947765FF91EF91B0918B0502
:1033C000A0918C05D0918D050E941C650E94D06152
:1033D00000E00093AE070CE10093AF07EF93FF937B
:1033E000E6E1F4EC0E947765FF91EF91B0918E05D4
:1033F000A0918F05D09190050E941C650E94D0611C
:1034000000E00093AE0709E30093AF07EF93FF934B
:10341000E6E1F6E30E947765FF91EF910E940D6768
:103420000091EB07002322F5EDE5F0E0B09188056F
:10343000A0918905D0918A050E941168B0918B05F1
:10344000A0918C05D0918D050E941168B0918E05D8
:10345000A0918F05D09190050E941168E2EAF0E0FA
:103460000FEF002F0E94336800E00093F50708C0BB
:10347000E2EAF0E000270E94336801E00093F507DC
:103480000E94DD670130E1F70E9462670091EB075F
:1034900000230AF40FC000E00093AE0709E1009397
:1034A000AF07EF93FF93EAE0F7E30E947765FF91A0
:1034B000EF910EC000E00093AE0709E10093AF0763
:1034C000EF93FF93EEE1F7E30E947765FF91EF91B1
:1034D00000E00093AE0709E30093AF07EF93FF937B
:1034E000E6E1F6E30E947765FF91EF910E940D6798
:1034F0000E94DD670130E1F70895E0E100E000930C
:103500006705009368050093690500E000936A056C
:1035100000936B0500936C0500E000936D0500932C
:103520006E0500936F050E94196230916705409106
:1035300068055091690560915E0570915F05809105
:103540006005580F471F361F309367054093680585
:103550005093690530916A0540916B0550916C0557
:10356000609161057091620580916305580F471F56
:10357000361F30936A0540936B0550936C0530916C
:103580006D0540916E0550916F05609164057091D5
:10359000650580916605580F471F361F30936D05EE
:1035A00040936E0550936F05C4E60E94BA67EA9592
:1035B00009F0B9CF60916705709168058091690540
:1035C00004E00E94796860936705709368058093B2
:1035D000690560916A0570916B0580916C0504E046
:1035E0000E94796860936A0570936B0580936C05FF
:1035F00060916D0570916E0580916F0504E00E94E9
:10360000796860936D0570936E0580936F050FEF79
:103610000093FE0708952020202020202020202035
:10362000202020434F4E54494E554500506C616355
:103630006520746865206169726372616674206FC9
:103640006E0061206C6576656C20737572666163CF
:103650006520616E6400707265737320434F4E5431
:10366000494E55452E005468652046432077696CC5
:103670006C207468656E207761697400352073650D
:103680006320746F206C6574207468650000616944
:1036900072637261667420736574746C6520646F04
:1036A000776E2E0020202020206C6461202324339C
:1036B00035006C6F6C3A20737461202430343237DB
:1036C000000020202020207365630000202020209F
:1036D00020736263202324303100202020202063C7
:1036E0006D702023243266002020202020626E6529
:1036F000206C6F6C00003C2D2D0043616C69627280
:103700006174696E672E2E2E000043616C696272CF
:103710006174696F6E206661696C65642E00436137
:103720006C6962726174696F6E207375636365653D
:10373000646564000E946267E5E9F0E00E94F36757
:10374000AA2362F0E8E9F0E00E94F367AA2332F4CA
:103750000FEFA02FE5E9F0E00E94FF6701E0009382
:10376000B20702E00093B30700E00093AE0701E068
:103770000093AF07EF93FF93E2E8FAE30E947765C7
:10378000FF91EF91E3E9F0E00E94F367AA234AF486
:10379000EF93FF93E2E0FBE30E947765FF91EF91E7
:1037A00008C0EF93FF93E8E0FBE30E947765FF9189
:1037B000EF9100E00093AE070AE00093AF07EF93AC
:1037C000FF93E2E9FAE30E947765FF91EF910E948F
:1037D000F367AA234AF4EF93FF93ECE0FBE30E9424
:1037E0007765FF91EF9108C0EF93FF93E0E1FBE372
:1037F0000E947765FF91EF9100E00093AE0703E12F
:103800000093AF07EF93FF93E4EAFAE30E94776532
:10381000FF91EF910E94F367AA234AF4EF93FF937D
:10382000ECE0FBE30E947765FF91EF9108C0EF9316
:10383000FF93E0E1FBE30E947765FF91EF9100E0E9
:103840000093AE070CE10093AF07EF93FF93E4EB17
:10385000FAE30E947765FF91EF910E94F367A093CE
:103860003908A03049F4EF93FF93E4E1FBE30E94B1
:103870007765FF91EF9140C0A13049F4EF93FF933A
:10388000E8E1FBE30E947765FF91EF911EC0A23053
:1038900049F4EF93FF93EEE1FBE30E947765FF911C
:1038A000EF9113C0A33049F4EF93FF93E4E2FBE3FD
:1038B0000E947765FF91EF9108C0EF93FF93EAE2D2
:1038C000FBE30E947765FF91EF9100E00093AE0764
:1038D00005E20093AF07EF93FF93E4ECFAE30E9455
:1038E0007765FF91EF91EF93FF93ECE0FBE30E948C
:1038F0007765FF91EF9125C000E00093AE0705E2E8
:103900000093AF07EF93FF93E4ECFAE30E9477652F
:10391000FF91EF91E7E9F0E00E94F367AA234AF4F0
:10392000EF93FF93ECE0FBE30E947765FF91EF914B
:1039300008C0EF93FF93E0E1FBE30E947765FF91FE
:10394000EF9100E00093AE070EE20093AF07EF9314
:10395000FF93E4EDFAE30E947765FF91EF91E8E9C8
:10396000F0E00E94F367AA234AF4EF93FF93ECE0A0
:10397000FBE30E947765FF91EF9108C0EF93FF93FF
:10398000E0E1FBE30E947765FF91EF9100E0009397
:10399000AE0709E30093AF07EF93FF93E8EEFAE376
:1039A0000E947765FF91EF91E0E3FBE304E0019F64
:1039B000E00DF11D05910093AE0705910093AF074F
:1039C00005910093B00704910093B10700E00093C4
:1039D000B2070E9495640E940D670E94DD6708305F
:1039E000F1F4E4E9F0E00E941B680093DB07E6E9EC
:1039F000F0E00E94F367A03059F0E7E9F0E00E94A0
:103A0000F367AA232AF4AA27E7E9F0E00E94FF67F8
:103A1000E7E9F0E00E941B68009343080895043032
:103A200021F41A950AF415E085CE023029F4139595
:103A3000163009F410E07ECE013011F5133071F428
:103A400000913908039505300CF000E00093390827
:103A5000A02FE6E9F0E00E94FF676CCEE3E9F0E01A
:103A600001E0019FE00DF11D0E94F36700E8A0272F
:103A7000E3E9F0E001E0019FE00DF11D0E94FF6726
:103A800059CE53656C662D4C6576656C20203A20C6
:103A900000004C696E6B20526F6C6C20506974632F
:103AA000683A20004175746F2044697361726D201B
:103AB0003A200000526563656976657220202020F7
:103AC0003A2000004368616E6E656C204D61702085
:103AD0003A2000004C6F7374204D6F64656C204178
:103AE0006C61726D3A2000004241434B20505245B8
:103AF00056204E455854204348414E4745004F6E8E
:103B00000000537469636B00415558005965730098
:103B10004E6F0000537464004350504D00004453F6
:103B20004D32000044534D5800005342757300005D
:103B30005300720964097A125312681B531B6D24D7
:103B40005324682D6A2D7F360E94626701E000933E
:103B5000B20702E00093B30700E00093AE0701E074
:103B60000093AF07EF93FF93E8EEFCE30E947765C5
:103B7000FF91EF91EAE7F0E00E94E5670E941C6583
:103B800000E00093AE070AE00093AF07EF93FF93C6
:103B9000EAEFFCE30E947765FF91EF910E94E567F1
:103BA0000E941C6500E00093AE0703E10093AF079D
:103BB000EF93FF93ECE0FDE30E947765FF91EF91B7
:103BC0000E94E5670E941C6500E00093AE070CE1CF
:103BD0000093AF07EF93FF93EEE1FDE30E9477655B
:103BE000FF91EF910E94E5670E941C6500E0009341
:103BF000AE0705E20093AF07EF93FF93E0E3FDE329
:103C00000E947765FF91EF910E94E5670E941C6515
:103C100000E00093AE070EE20093AF07EF93FF932F
:103C2000E2E4FDE30E947765FF91EF910E94E56772
:103C30000E941C6500E00093AE0709E30093AF0704
:103C4000EF93FF93E4E5FDE30E947765FF91EF9129
:103C5000EAE6FDE304E0019FE00DF11D059100930C
:103C6000AE0705910093AF0705910093B00704914B
:103C70000093B10700E00093B2070E9495640E9490
:103C80000D670E94DD67083009F40895043021F4BF
:103C90001A950AF415E058CF023029F4139516301E
:103CA00009F410E051CF0130F1F4EAE7F0E002E06E
:103CB000019FE00DF11DEF93FF930E94E567E2E89D
:103CC000FDE304E0019FE00DF11DC591D591059044
:103CD0001590E02DF12D0E942F38A02DB12DFF91D0
:103CE000EF910E94EC6730CF4D696E696D756D2064
:103CF0007468726F74746C653A00486569676874BB
:103D00002044616D70656E696E673A004865696749
:103D1000687420442E204C696D6974203A00416C0F
:103D200061726D20312F313020766F6C74733A00E0
:103D3000536572766F2066696C746572202020204E
:103D40003A004163632053572066696C74657220A2
:103D500020203A004241434B2050524556204E45C8
:103D60005854204348414E47450065007F09650986
:103D70007F1265127F1B651B7F2465247F2D652DB7
:103D80007F36000014000000F40100001E00000057
:103D9000007D00006400040040000E94626701E0B2
:103DA0000093B20702E00093B30700E00093AE0770
:103DB00001E00093AF07EF93FF93E2E0FFE30E947F
:103DC0007765FF91EF9100E00093AE070EE000935E
:103DD000AF07EF93FF93E0E1FFE30E947765FF9168
:103DE000EF91E6E8F0E00E94E5670E941C6500E0C4
:103DF0000093AE0707E10093AF07EF93FF93EEE167
:103E0000FFE30E947765FF91EF910E94E5670E94B2
:103E10001C6500E00093AE0700E20093AF07EF934C
:103E2000FF93ECE2FFE30E947765FF91EF910E9420
:103E3000E5670E941C6500E00093AE0709E200936D
:103E4000AF07EF93FF93EAE3FFE30E947765FF91EB
:103E5000EF910E94E5670E941C6500E00093AE07A9
:103E600009E30093AF07EF93FF93E8E4FFE30E94B9
:103E70007765FF91EF91EEE5FFE304E0019FE00D30
:103E8000F11D05910093AE0705910093AF070591D1
:103E90000093B00704910093B10700E00093B207CC
:103EA0000E9495640E940D670E94DD67083009F446
:103EB0000895043021F41A950AF413E06ECF02300D
:103EC00029F41395143009F410E067CF0130C1F4E0
:103ED000E6E8F0E002E0019FE00DF11D0E94E567D9
:103EE000C0E0D0E0E0E0FDE70E942F38A02DB12D2A
:103EF000E6E8F0E002E0019FE00DF11D0E94EC67B2
:103F00004CCF537469636B205363616C696E6700B7
:103F1000526F6C6C202841696C2920203A0050694E
:103F20007463682028456C6529203A005961772020
:103F300028527564292020203A005468726F7474E6
:103F40006C65202020203A004241434B20505245CE
:103F500056204E455854204348414E4745004D0D8C
:103F60006E164D166E1F4D1F6E284D286E310E9425
:103F7000626701E00093B20702E00093B30706E036
:103F80000093AE0704E00093AF07EF93FF93EAE1DD
:103F9000F4E40E947765FF91EF9106E00093AE078D
:103FA0000DE00093AF07EF93FF93EEE2F4E40E947D
:103FB0007765FF91EF9106E00093AE0706E100936D
:103FC000AF07EF93FF93E2E4F4E40E947765FF917B
:103FD000EF9100E00093AE0709E30093AF07EF9382
:103FE000FF93ECE9F3E40E947765FF91EF910E9463
:103FF0000D670E94DD67083009F40895013011F063
:104000000C94B71F0E94F41400913A0808710695A9
:104010000695069500933A0800913B0808710695AD
:104020000695069500933B0800933C0800913E08D6
:10403000077000933E0810E00E94626701E0009361
:10404000B20702E00093B30700E00093AE0701E07F
:104050000093AF07EF93FF93E6E5F3E40E947765E3
:10406000FF91EF9104E60093AE0700913A0800300B
:1040700041F4EF93FF93E6EDF3E40E947765FF913F
:10408000EF91013041F4EF93FF93EAEDF3E40E94E6
:104090007765FF91EF91023041F4EF93FF93EEEDDE
:1040A000F3E40E947765FF91EF91033041F4EF93C1
:1040B000FF93E4EEF3E40E947765FF91EF9100E057
:1040C0000093AE070AE00093AF07EF93FF93E6E695
:1040D000F3E40E947765FF91EF9104E60093AE0749
:1040E00000913B08003041F4EF93FF93EAEEF3E4D4
:1040F0000E947765FF91EF91013041F4EF93FF93B8
:10410000ECEEF3E40E947765FF91EF91023041F409
:10411000EF93FF93EEEEF3E40E947765FF91EF914A
:10412000033041F4EF93FF93E0EFF3E40E947765EF
:10413000FF91EF9100E00093AE0703E10093AF071A
:10414000EF93FF93E6E7F3E40E947765FF91EF9129
:1041500004E60093AE0700913E08003041F4EF936F
:10416000FF93E4EFF3E40E947765FF91EF91013054
:1041700041F4EF93FF93E8EFF3E40E947765FF913A
:10418000EF91023041F4EF93FF93ECEFF3E40E94E0
:104190007765FF91EF91033041F4EF93FF93E0E0F7
:1041A000F4E40E947765FF91EF91043041F4EF93BE
:1041B000FF93E4E0F4E40E947765FF91EF9105300E
:1041C00041F4EF93FF93E8E0F4E40E947765FF91F8
:1041D000EF91063041F4EF93FF93ECE0F4E40E949A
:1041E0007765FF91EF9100903B0810903C08011417
:1041F00009F422C001E00093B2070FE00093AE077C
:1042000007E20093AF07EF93FF93E2EBF3E40E9422
:104210007765FF91EF9100E00093B20700E0009313
:10422000AE0705E20093AF070FE70093B00700E386
:104230000093B1070E94956401E00093B20700E08B
:104240000093AE0708E30093AF07EF93FF93E6E810
:10425000F3E40E947765FF91EF91EEE0F4E404E06F
:10426000019FE00DF11D05910093AE0705910093AC
:10427000AF0705910093B00704910093B10700E0E8
:104280000093B2070E9495640E940D670E94DD674B
:10429000083009F42BC0043021F41A950AF412E016
:1042A000CBCE023029F41395133009F410E0C4CEBC
:1042B0000130D9F4103031F400913A0803950370BD
:1042C00000933A08113031F400913B0803950370D4
:1042D00000933B08123049F400913E0803950770A3
:1042E000073009F400E000933E08A6CE00913A089A
:1042F000000F000F000F00933A0800913B08009355
:104300003D08000F000F000F00933B0800913E088E
:1043100000933E08A0913A08E3EAF0E00E94FF67AC
:10432000A0913B080E94FF67A0913E080E94FF6792
:104330000E94BB140E943D6A00903D0810903C080A
:10434000011409F40895AA27E2EAF0E00E94FF6749
:104350000E94FD1708954779726F20286465672FC2
:10436000736563293A0041636320202020282B2FA6
:104370002D2067293A0046696C7465722020202040
:1043800028487A293A004241434B20505245562052
:104390004E455854204348414E4745004241434B07
:1043A000202020202020202020434F4E54494E55CD
:1043B00045004163632043616C206F6E206578691E
:1043C00074210000202020202020202020202020D8
:1043D00020202020000032353000353030003130D0
:1043E000303000003230303000003200340038000D
:1043F00031360000323536003138380039380000A7
:1044000034320000323000003130000035006400EA
:104410007C0964097C1264127C1B205761726E69EE
:104420006E672C206368616E67696E672000746830
:104430006573652073657474696E67202077696C95
:104440006C0061666665637420502649207365744C
:1044500074696E6773000FEF0093FB070E94626739
:1044600001E00093B20704E00093B3070091DE0778
:1044700000237AF402E20093AE0706E10093AF074F
:10448000EF93FF93E4EFFAE40E947765FF91EF91D9
:104490001AC3009149080023F2F000E00093AF072F
:1044A0000091F507013064F406E20093AE07EF9344
:1044B000FF93E8EEFAE40E947765FF91EF910BC05D
:1044C00002E20093AE07EF93FF93EEEEFAE40E9450
:1044D0007765FF91EF910091DE0700238AF000E0FD
:1044E0000093AE0709E30093AF0702E00093B30720
:1044F000EF93FF93E2EDFAE40E947765FF91EF916D
:1045000000E00093AE0700E00093AF070091490878
:104510000023AAF40091F50701304CF4EF93FF93C8
:10452000E8E1FCE40E947765FF91EF9108C0EF930A
:10453000FF93E2E0FCE40E947765FF91EF91009128
:10454000DE0700230AF4A4C200914B080023FAF40A
:104550000DE60093AE0700E00093AF0702E0009382
:10456000B3070091E60700234AF0EF93FF93E6E4D8
:10457000FBE40E947765FF91EF9127C0EF93FF93D3
:10458000EAE4FBE40E947765FF91EF911EC003E728
:104590000093AE0700E00093AF0702E00093B3077B
:1045A00000914A0800234AF0EF93FF93E2E4FBE412
:1045B0000E947765FF91EF9108C0EF93FF93EEE3C0
:1045C000FBE40E947765FF91EF9100E00093AE0756
:1045D00001E10093AF0702E00093B307EF93FF936D
:1045E000EAEFFAE40E947765FF91EF910091E60708
:1045F0000023CAF4EF93FF93E8E0FBE40E947765A1
:10460000FF91EF910091F9070023AAF4EF93FF9334
:10461000E0E1FBE40E947765FF91EF910091FA07DA
:104620000E947D6508C0EF93FF93ECE0FBE40E94DD
:104630007765FF91EF9100E00093AE070BE10093E7
:10464000AF07EEE2FCE40091F507000FE00F002752
:10465000F01FA591B491FD010E94776500E00093E1
:1046600040050DE00093410500E4009342051091E0
:104670009A0520919B0530919C05409140055091F1
:104680004105609142050E948868709340058093BF
:1046900041052092420500E00093660608E0009381
:1046A000670600E00093680630914005409141059F
:1046B0005091420560916606709167068091680688
:1046C000580F471F361F30934005409341055093C4
:1046D000420560914005709141058091420509E0D5
:1046E0000E9479686093400570934105809342056C
:1046F00000E00093660600E00093670600E0009388
:104700006806309140054091410550914205609105
:104710006606709167068091680658174707360746
:104720004CF400E00093400500E00093410500E0F8
:104730000093420500E00093AE0704E20093AF0748
:1047400002E00093B307EF93FF93E6E1FBE40E94DE
:104750007765FF91EF910CE10093AE07B0914005B2
:10476000A0914105D09142050E941C650EE20E9475
:104770007D65AD2FBB27B0934005A0934105D09335
:10478000420500E00093660600E0009367060AE039
:104790000093680610914005209141053091420533
:1047A0004091660650916706609168060E9488688D
:1047B00070934005809341052092420500E00093EC
:1047C00066060AE00093670600E0009368063091F1
:1047D00040054091410550914205609166067091F7
:1047E000670680916806581747073607F1F400E01E
:1047F0000093660601E00093670600E000936806F8
:104800003091400540914105509142056091660606
:104810007091670680916806581B470B360B3093E2
:1048200040054093410550934205B0914005A09149
:104830004105D09142050E941C6506E50E947D65F8
:104840000CE30093AE0704E20093AF0702E000938D
:10485000B307EF93FF93ECE1FBE40E947765FF91D0
:10486000EF9100E30093400504E80093410503E362
:10487000009342053091A0054091A1055091A205F9
:10488000609140057091410580914205580F471F86
:10489000361F30934005409341055093420500E098
:1048A0000093660601E00093670601E8009368063E
:1048B00010914005209141053091420540916606D6
:1048C00050916706609168060E9488687093400561
:1048D0008093410520924205609140057091410509
:1048E0008091420509E00E947968609340057093C9
:1048F000410580934205B0914005A0914105D091BA
:1049000042050E941C650EE20E947D65AD2FBB270B
:10491000B0934005A0934105D093420500E0009379
:10492000660600E0009367060AE0009368061091AF
:104930004005209141053091420540916606509115
:104940006706609168060E948868709340058093AE
:1049500041052092420500E0009366060AE00093BC
:10496000670600E0009368063091400540914105DC
:1049700050914205609166067091670680916806C5
:10498000581747073607F1F400E00093660601E088
:104990000093670600E0009368063091400540915F
:1049A00041055091420560916606709167068091BD
:1049B0006806581B470B360B309340054093410562
:1049C00050934205B0914005A0914105D091420518
:1049D0000E941C6503E40E947D6500E00093AE0721
:1049E0000DE20093AF07EF93FF93E2E2FBE40E9436
:1049F0007765FF91EF91B091B706A091B806D0917D
:104A0000B9060091FE07002312F40E941C6500E025
:104A10000093AE0706E30093AF07EF93FF93E0E345
:104A2000FBE40E947765FF91EF91B091BA06A091E7
:104A3000BB06D091BC060091FE07002312F40E9431
:104A40001C6500E00093AE0700E00093AF0700E0B4
:104A50000093400502E00093410500E00093420509
:104A60003091E1064091E2065091E30660914005E5
:104A7000709141058091420558174707360744F069
:104A8000B091E106A091E206D091E3060E941C6578
:104A9000009149080023BAF4009148080F3F99F0AB
:104AA000A02FE6E8FCE104E10A9FE00DF11D00E023
:104AB0000093AE0709E00093AF07B3E105910E94B0
:104AC0007D65BA95DAF70E940D6700270093FB0712
:104AD0000895202020202020202020202020202079
:104AE0002020204D454E5500423A3D3C00003C41BF
:104AF000414041003A413E3C3B0053656C662D6CA1
:104B00006576656C203A20004F4E20004F464600E7
:104B10004D4958200000426174743A0054656D702C
:104B20003A0020526F6C6C20416E676C653A000051
:104B3000506974636820416E676C653A00005031BB
:104B400000005032000050493100504932004F4BB4
:104B50002E004572726F723A2043616C6962726115
:104B600074652041434320004572726F723A206E93
:104B70006F20526F6C6C20696E70757420004572E6
:104B8000726F723A206E6F20506974636820696E8C
:104B9000707574004572726F723A206E6F2054689F
:104BA000726F20696E70757420004572726F723A70
:104BB000206E6F2059617720696E70757420200017
:104BC0004572726F723A206E6F2041555820696E9F
:104BD0007075742020004572726F723A2053616EB6
:104BE00069747920636865636B2020004572726F79
:104BF00072204E6F204D6F746F72204C61796F750B
:104C0000740020202020202020204552524F522086
:104C100020202020202020002020202020202020B4
:104C200053414645202020202020202020004E4BAC
:104C3000524B684B7E4B944BAA4BC04BD64BEC4B24
:104C40000090E0071090F70701200092EC07009019
:104C5000EC071090DE0701200092EC070091EC07B2
:104C6000002342F000E00093A8060093A9060093F9
:104C7000AA063AC03091A8064091A90601E0400F6B
:104C80000027301F3093A8064093A9060FE1009338
:104C9000400500E40093410500E000934205309197
:104CA000A8064091A9065091AA066091400570910E
:104CB000410580914205581747073607A9F400E0DF
:104CC0000093A8060093A9060093AA060027009364
:104CD000DE070FEF0093E4070091F80700231AF4B2
:104CE0000FEF0093F40708950091E007002392F579
:104CF0000EEF009340050CE00093410500E00093A7
:104D000042053091520540915305509154056091F0
:104D100040057091410580914205581747073607B5
:104D2000ECF001E00093400504EF0093410500E042
:104D3000009342053091520540915305509154051E
:104D400060914005709141058091420558174707D1
:104D5000360724F400E00093E10708950091E1078D
:104D600003950093E1070091E1070F3F09F0ACC004
:104D7000B0915205A0915305D0915405BB232AF45C
:104D80000091F507003011F008953EC00FEF009339
:104D9000DE0700270093F40701E000939F060CE272
:104DA0000093A00600E00093A1060E947D1A00E097
:104DB0000093E1060093E2060093E30600E000930F
:104DC0004107009342070093430700934407009371
:104DD000450700E000934607009347070093480704
:104DE0000093490700934A0701E000934B0700E056
:104DF00000934C0700E000934D0700E000934E073E
:104E000000E000934F070FC000270093DE07002744
:104E10000093F40700E000939F0606E90093A006C4
:104E200000E00093A1060FEF0093F3070FEF00934C
:104E3000E40703E000939C0600E200939D0600E077
:104E400000939E0600E00093A8060093A906009335
:104E5000AA0601E00093400504EF0093410500E03D
:104E6000009342053091490540914A0550914B0508
:104E700060914005709141058091420558174707A0
:104E80003607D4F40EEF009340050CE00093410583
:104E900000E0009342053091490540914A05509148
:104EA0004B0560914005709141058091420558176E
:104EB000470736072CF008C00FEF0093E70704C040
:104EC00000270093E70700C00895E0EDF0E00E949E
:104ED000516800934B0800914B08002322F40FEF18
:104EE00000934A0806C0EFECF0E00E94516800937E
:104EF0004A0810E4A0E0B5E0E4E0F0E00E941B689E
:104F00000D9331961A95D1F7E4E4F0E00E947D2FDD
:104F1000009140050093B805009141050093B90543
:104F2000009142050093BA050E947D2F0E949D2F9B
:104F3000009140050093C105009141050093C20511
:104F4000009142050093C3050E947D2F0E946D2FA2
:104F5000009140050093CA05009141050093CB05DF
:104F6000009142050093CC050E947D2F0E949D2F49
:104F7000009140050093D305009141050093D405AD
:104F8000009142050093D5050E947D2F00914005B8
:104F90000093BB05009141050093BC0500914205BB
:104FA0000093BD050E947D2F0E949D2F009140051A
:104FB0000093C405009141050093C5050091420589
:104FC0000093C6050E947D2F0E946D2F0091400521
:104FD0000093CD05009141050093CE050091420557
:104FE0000093CF050E947D2F0E949D2F00914005C8
:104FF0000093D605009141050093D7050091420525
:105000000093D8050E947D2F009140050093BE05B6
:10501000009141050093BF05009142050093C00532
:105020000E947D2F0E949D2F009140050093C7058F
:10503000009141050093C805009142050093C90500
:105040000E947D2F0E946D2F009140050093D00596
:10505000009141050093D105009142050093D205CE
:105060000E947D2F0E949D2F009140050093D9053D
:10507000009141050093DA05009142050093DB059C
:10508000E4E4F0E00E948D2F009140050093DC05E0
:10509000009141050093DD05009142050093DE0576
:1050A0000E948D2F0E949D2F009140050093E505E1
:1050B000009141050093E605009142050093E70544
:1050C0000E948D2F0E946D2F009140050093EE05E8
:1050D000009141050093EF05009142050093F00512
:1050E0000E948D2F0E949D2F009140050093F7058F
:1050F000009141050093F805009142050093F905E0
:105100000E948D2F009140050093DF05009141051D
:105110000093E005009142050093E1050E948D2F68
:105120000E949D2F009140050093E80500914105E4
:105130000093E905009142050093EA050E948D2F36
:105140000E946D2F009140050093F10500914105EB
:105150000093F205009142050093F3050E948D2F04
:105160000E949D2F009140050093FA050091410592
:105170000093FB05009142050093FC050E948D2FD2
:10518000009140050093E205009141050093E3057D
:10519000009142050093E4050E948D2F0E949D2FEF
:1051A000009140050093EB05009141050093EC054B
:1051B000009142050093ED050E948D2F0E946D2FF6
:1051C000009140050093F405009141050093F50519
:1051D000009142050093F6050E948D2F0E949D2F9D
:1051E000009140050093FD05009141050093FE05E7
:1051F000009142050093FF0518E0E0E0F5E005812D
:10520000889401FD0894A795889400FD0894B795AB
:1052100038961A95A1F7A093D707B093D80708E05E
:10522000009340050CEA0093410500E0009342051D
:1052300000E00093EF07EF93FF933091400540911A
:10524000410550914205E6E3F6E06091EF0703E087
:10525000609FE00DF11D319341935193FF91EF91C8
:105260000091EF0703950093EF070091EF070830D7
:1052700011F7EAE7F0E00E947D2F00E00093660658
:105280000CE20093670606E600936806109140055D
:105290002091410530914205409166065091670684
:1052A000609168060E9488687093000680930106EA
:1052B00020920206E6E8F0E00E947D2F0E946D2F0A
:1052C00000914005009303060091410500930406F8
:1052D0000091420500930506E8E8F0E00E947D2F6A
:1052E0000E946D2F00914005009306060091410534
:1052F000009307060091420500930806EAE8F0E0F3
:105300000E947D2F0E946D2F009140050093090699
:105310000091410500930A060091420500930B0697
:10532000ECE8F0E00E947D2F0E946D2F0091400577
:1053300000930C060091410500930D060091420573
:1053400000930E06E6E8F0E00E948D2F0E946D2F7C
:105350000091400500930F0600914105009310064F
:105360000091420500931106E8E8F0E00E948D2FBD
:105370000E946D2F00914005009312060091410597
:10538000009313060091420500931406EAE8F0E04A
:105390000E948D2F0E946D2F0091400500931506ED
:1053A00000914105009316060091420500931706EF
:1053B000ECE8F0E00E948D2F0E946D2F00914005D7
:1053C00000931806009141050093190600914205CB
:1053D00000931A06E2E8F0E00E947D2F00E00093BF
:1053E000660604E60093670600E0009368063091C5
:1053F000660640916706509168066091400570917D
:10540000410580914205581B470B360B3093990696
:1054100040939A0650939B066091990670919A0664
:1054200080919B0607E00E947968609399067093CB
:105430009A0680939B06E2E7F0E00E947D2F0091A0
:105440004005009369060091410500936A060091AA
:10545000420500936B060091400500936C06009195
:10546000410500936D060091420500936E060027EA
:1054700000934C0800E00093400500934105009321
:1054800042053091690640916A0650916B06609121
:10549000400570914105809142055817470736072E
:1054A00019F40FEF00934C08E4E7F0E00E947D2F21
:1054B00000E0009366060AE00093670600E00093B0
:1054C00068061091400520914105309142054091B8
:1054D000660650916706609168060E94886870931E
:1054E00072068093730620927406E2E7F0E00E9451
:1054F0008D2F0091400500937506009141050093A2
:1055000076060091420500937706002700934D0828
:1055100000E000934005009341050093420530915F
:10552000750640917606509177066091400570911E
:1055300041058091420558174707360719F40FEFC8
:1055400000934D08E4E7F0E00E948D2F00E0009307
:1055500066060AE00093670600E000936806109173
:1055600040052091410530914205409166065091D9
:105570006706609168060E94886870937806809339
:10558000790620927A06ECE7F0E00E947D2F0091E8
:10559000400500937B060091410500937C06009135
:1055A000420500937D06EEE7F0E00E947D2F0E9409
:1055B0009D2F0091400500937E06009141050093C8
:1055C0007F060091420500938006EBEAF0E00E941E
:1055D0007D2F00E00093660604E00093670600E07C
:1055E00000936806109140052091410530914205D5
:1055F0004091660650916706609168060E9488682F
:105600007093E4068093E5062092E606E0E8F0E079
:105610000E947D2F00E00093660603E0009367067A
:105620000DED0093680610914005209141053091E1
:1056300042054091660650916706609168060E9497
:105640008868709381068093820620928306309149
:10565000810640918206509183066091E406709124
:10566000E5068091E606580F471F361F30938106E6
:105670004093820650938306E4E8F0E00E947D2F79
:1056800060914005709141058091420508E00E94BB
:1056900079686093400570934105809342050091BD
:1056A0004005009384060091410500938506009112
:1056B000420500938606E6E7F0E00E947D2F6091A8
:1056C0004005709141058091420503E00E94796890
:1056D0006093400570934105809342050091400519
:1056E0000093A206009141050093A3060091420594
:1056F0000093A406E8E7F0E00E947D2F609140054A
:10570000709141058091420503E00E9479686093A1
:105710004005709341058093420500914005009338
:10572000A506009141050093A6060091420500934D
:10573000A706EAE9F0E00E947D2F0E946D2F0091FC
:1057400040050093C906009141050093CA060091E7
:1057500042050093CB06ECE9F0E00E947D2F0E9409
:10576000BB2F009140050093CC06009141050093AA
:10577000CD06009142050093CE06EEE9F0E00E94CE
:105780007D2F0E946D2F009140050093CF06009160
:1057900041050093D006009142050093D106E0EA4E
:1057A000F0E00E947D2F0E94BB2F009140050093E6
:1057B000D206009141050093D30600914205009363
:1057C000D406EDE5F0E00E940768B0938805A09349
:1057D0008905D0938A050E940768B0938B05A09332
:1057E0008C05D0938D050E940768B0938E05A09319
:1057F0008F05D0939005E3E9F0E00E941B680093C9
:10580000E507E4E9F0E00E941B680093DB07E5E9A7
:10581000F0E00E941B680093F707E9E9F0E00E94BE
:105820001B680F93002319F00FEF002F01C0002712
:105830000093F9070F91043069F00130B1F000E0F6
:1058400000936F0600E00093700609E10093710673
:105850000DE415C000E000936F0600E000937006B1
:105860000CE0009371060CE40AC000E000936F06A0
:1058700000E00093700603E30093710608E40093D0
:10588000FA0701E00093DA0705E00093D9070FEF6C
:105890000093E40700270093FB0700270093DE072F
:1058A00000270093DF070AEF0093D60700E000937C
:1058B000EA0700E00093A8060093A9060093AA0651
:1058C00003E000939D050FEF00939E0500E0009319
:1058D0009F0500E000939F060093A0060093A10699
:1058E00000E000939C0600939D0600939E0600E056
:1058F0000093AE060093AF060093B00600E000935D
:10590000B1060093B2060093B30600270093F30795
:1059100000270093F20700270093FD07002700935C
:10592000FE0700E00093B4060093B5060093B606A8
:1059300000E0009341070093420700934307009360
:1059400044070093450700E000934607009347078C
:10595000009348070093490700934A0701E000932A
:105960004B0700E000934C0700E000934D0700E078
:1059700000934E0700E000934F0700E00093B70646
:105980000093B8060093B90600E00093BA060093AE
:10599000BB060093BC0600913B080871069506956E
:1059A00006950330BCF40230B4F40130ACF400E0EE
:1059B0000093DB0600E80093DC0600E00093DD06C0
:1059C00000E00093DE0600E00093DF0604E50093AC
:1059D000E0063AC027C013C000E00093DB0600E4F5
:1059E0000093DC0600E00093DD0600E00093DE0695
:1059F00000E00093DF0608EA0093E00625C000E01F
:105A00000093DB0600E20093DC0600E00093DD0675
:105A100000E00093DE0601E00093DF0601E500935D
:105A2000E00612C000E00093DB0600E10093DC0614
:105A300000E00093DD0600E00093DE0602E0009344
:105A4000DF0603EA0093E00601E00093280704ED77
:105A50000093290700E800932A0708E400932B0726
:105A600006E600932C0700913A0808710695069502
:105A7000069503302CF402303CF401304CF40CC099
:105A800004E0009345080BC002E00093450807C0FE
:105A900001E00093450803C000E000934508EDEAEB
:105AA000F0E00E941B6800934408E6EAF0E00E94E0
:105AB0001B6800933F08E7EAF0E00E941B68009330
:105AC0004008E8EAF0E00E941B6800934108E9EA18
:105AD000F0E00E941B6800934208E8E9F0E00E94B1
