:020000020000FC
:100000000C943F000C9468520C9443520C94A852E8
:100010000C943E000C94C8520C943E000C948852F0
:100020000C943E000C943E000C943E000C943E0058
:100030000C943E000C9411480C9444480C943E00DF
:100040000C943E000C943E000C943E000C943E0038
:100050000C94E8520C943E000C943E000C943E002C
:100060000C943E000C943E000C943E000C943E0018
:100070000C943E000C943E000C943E0018950FEF3B
:100080000DBF00E10EBF0E9444090E9433160E947A
:10009000BE6500E00093AE0700E00093AF0700E00C
:1000A0000093B00700E00093B10700270093E10739
:1000B00000270093EE0700270093D70700E0009386
:1000C000EF0700E00093F00700E00093DB060093E9
:1000D000DC060093DD0600270093BC070093BD07F4
:1000E0000093BE070093BF070093C0070093C107AA
:1000F0000093C2070093C3070093C4070093C5078A
:100100000093FB070093FC070093FD070093FE0795
:100110000093FF0700930008009301080093020872
:100120000093030800930408009305080093060851
:1001300000930708009308080E94ED680FE0009301
:10014000A50600EA0093A60600E00093A706EBEFE1
:10015000F7E0E093F907F093FA07E0E1F8E0E093C5
:100160000E08F0930F08002700932B080E94BA1482
:100170000E94F3090E94771A0E94672700912C08B9
:10018000002312F40E94996E78940E9479660930D7
:1001900011F40E9409150E94672706E006BB0E9421
:1001A000CB470E9491530E9405090E9422260E947B
:1001B000130D0E94913B0E94660D0E945D3A0E94C1
:1001C00042020E94890A0E946A0C0E9450480090D4
:1001D000EF071090F007011481F00091EF070093F2
:1001E000F0070090D80700940092E6070090DE0721
:1001F0001090E60701280092DE070090E2071090B9
:10020000E30701240092E6070090D80700940092CB
:10021000E7070090E6071090E70701200092E60745
:100220000090DE071090E60701280092DE0700909C
:10023000E2071090E20701200092E3070091DE0739
:1002400000232AF400270093DE070E942522009154
:10025000D80700230AF4A3CF03B1009502950F70CD
:10026000013009F09CCF00E000936F00002700935D
:10027000EE070E94B00B0E945A5E8DCF0E9413665B
:1002800001E00093AC0702E00093AD0700E00093AB
:10029000A80701E00093A907EF93FF93ECEFF3E0C9
:1002A0000E942864FF91EF9100E00093A8070EE000
:1002B0000093A907EF93FF93EEE0F4E00E94286417
:1002C000FF91EF91E9E9F0E00E9495660E94CD630D
:1002D00000E00093A80707E10093A907EF93FF93BD
:1002E000EEE1F4E00E942864FF91EF910E94956690
:1002F0000E94CD6300E00093A80700E20093A907E5
:10030000EF93FF93EEE2F4E00E942864FF91EF91F7
:100310000E9495660E94CD6300E00093A80709E261
:100320000093A907EF93FF93EEE3F4E00E942864A3
:10033000FF91EF910E9495660E94CD6300E00093CB
:10034000A80709E30093A907EF93FF93EEE4F4E015
:100350000E942864FF91EF91E4E6F4E004E0019F3D
:10036000E00DF11D05910093A80705910093A907E1
:1003700005910093AA0704910093AB0700E0009356
:10038000AC070E9446630E94BE650E948A660830E0
:1003900009F40895043021F41A950AF413E06ECF9D
:1003A000023029F41395143009F410E067CF0130BE
:1003B00021F5E9E9F0E002E0019FE00DF11DEF9386
:1003C000FF930E949566E4E7F4E004E0019FE00DEE
:1003D000F11DC591D59105901590E02DF12D0E944C
:1003E000F137A02DB12DFF91EF91E9E9F0E002E0A6
:1003F000019FE00DF11D0E949C6640CF43616D6539
:100400007261205374616220536574757000526F7D
:100410006C6C206761696E202020203A0000526FCA
:100420006C6C206F666673657420203A000050691A
:10043000746368206761696E2020203A000050696B
:10044000746368206F6666736574203A00004241E9
:10045000434B2050524556204E4558542043484166
:100460004E474500530D6E1653166E1F531F6E28D0
:1004700053286E310083007D000064000083007DFE
:100480000000640000913A0801300CF496C000911D
:100490003A0802300CF401C02CC0B0915505A0916F
:1004A0005605D09157050E940157B0935505A0936A
:1004B0005605D093570500E00093400504E00093F3
:1004C000410500E70093420510915505209156051E
:1004D000309157054091400550914105609142058A
:1004E0000E9438677093CC068093CD062092CE068A
:1004F00064C003E00093400508EE0093410500E06E
:1005000000934205309158054091590550915A0584
:10051000609140057091410580914205580F471F39
:10052000361F309358054093590550935A05309122
:100530005B0540915C0550915D05609140057091AF
:10054000410580914205580F471F361F30935B05C8
:1005500040935C0550935D0500E00093400502E088
:100560000093410508E3009342051091580520913E
:10057000590530915A0540914005509141056091CF
:1005800042050E9438677093C6068093C706209282
:10059000C80610915B0520915C0530915D05409186
:1005A000400550914105609142050E943867709363
:1005B000CC068093CD062092CE060091C60600930D
:1005C000CF060091C7060093D0060091C80600939D
:1005D000D1061091B1062091B2063091B306409138
:1005E000C3065091C4066091C5060E943867709397
:1005F000400580934105209242053091CF064091FD
:10060000D0065091D10660914005709141058091CE
:100610004205580F471F361F3093CF064093D00630
:100620005093D1060091CC060093D2060091CD06DE
:100630000093D3060091CE060093D4061091B40621
:100640002091B5063091B6064091C9065091CA0670
:100650006091CB060E9438677093400580934105F6
:10066000209242053091D2064091D3065091D40693
:10067000609140057091410580914205580F471FD8
:10068000361F3093D2064093D3065093D40600E031
:100690000093400500934105009342053091C30645
:1006A0004091C4065091C506609140057091410586
:1006B0008091420558174707360709F4A3C03091C7
:1006C000C9064091CA065091CB06609140057091D1
:1006D00041058091420558174707360709F492C033
:1006E000009139080023CAF00091CF06009330062C
:1006F0000091D006009331060091D1060093320696
:100700000091D206009333060091D306009334067D
:100710000091D406009335065DC03091CF0640911C
:10072000D0065091D1066091D2067091D306809187
:10073000D406581B470B360B3093300640933106D6
:10074000509332063091CF064091D0065091D10699
:100750006091D2067091D3068091D406580F471F3E
:10076000361F30933306409334065093350608E025
:100770000093400508E90093410500E0009342051D
:10078000309130064091310650913206609140051B
:100790007091410580914205580F471F361F3093D5
:1007A0003006409331065093320630913306409123
:1007B0003406509135066091400570914105809155
:1007C0004205581B470B360B3093330640933406D3
:1007D000509335060091C606009360060091C70647
:1007E000009361060091C806009362060091CC0652
:1007F000009363060091CD06009364060091CE0637
:1008000000936506089500912C070093310700912D
:100810002D070093320700912E07009333070091B4
:100820002F07009334070091300700933507089590
:1008300030902C0740902D0750902E0760902F0786
:100840007090300720912C0730912D0740912E0792
:1008500050912F07609130070E944768B093590765
:10086000C0935A07D0935B07E0935C07F0935D0752
:100870003090590740905A0750905B0760905C0792
:1008800070905D0701E00E94E06830925907409245
:100890005A0750925B0760925C0770925D0701E017
:1008A00000935E0700E000935F0700E0009360079D
:1008B00000E00093610700E00093620730905E075C
:1008C00040905F07509060076090610770906207EA
:1008D0002091590730915A0740915B0750915C076E
:1008E00060915D07761A650A540A430A320A30920B
:1008F0003607409237075092380760923907709256
:100900003A070895B0932C07A0932D07D0932E0794
:10091000C0932F07F093300730902C0740902D079D
:1009200050902E0760902F077090300720911D0780
:1009300030911E0740911F075091200760912107B9
:100940000E944768B0932C07C0932D07D0932E07C1
:10095000E0932F07F09330070895EE27FF27CD2F60
:10096000DA2FAB2FBB2312F4BFEF0895BB270895F6
:100970004ADF5EDF30904F0740905007509051079C
:1009800060905207709053072091360730913707D7
:10099000409138075091390760913A070E944768A3
:1009A000B0936D07C0936E07D0936F07E093700705
:1009B000F0937107309054074090550750905607B8
:1009C0006090570770905807209131073091320797
:1009D0004091330750913407609135070E94476872
:1009E000B0935907C0935A07D0935B07E0935C0715
:1009F000F0935D0730906D0740906E0750906F0741
:100A000060907007709071072091590730915A07D4
:100A100040915B0750915C0760915D07761A650A0B
:100A2000540A430A320A30926D0740926E07509280
:100A30006F07609270077092710730904F07409077
:100A400050075090510760905207709053072091C3
:100A5000310730913207409133075091340760914C
:100A600035070E944768B0937207C0937307D0930D
:100A70007407E0937507F093760730905407409021
:100A8000550750905607609057077090580720916F
:100A900036073091370740913807509139076091F8
:100AA0003A070E944768B0935907C0935A07D093FA
:100AB0005B07E0935C07F0935D073090720740900E
:100AC00073075090740760907507709076072091B7
:100AD000590730915A0740915B0750915C0760912C
:100AE0005D07760E651E541E431E321E309272073D
:100AF0004092730750927407609275077092760760
:100B00000895F894A0918400B09185007894E091C4
:100B10003E08F0913F08A0933E08B0933F08AE1BFB
:100B2000BF0B2AF4E0E0F0E0EA1BFB0BDF01DD275E
:100B3000B695A795D795B695A795D795B695A79548
:100B4000D795B695A795D795CC27FF27B0932707BC
:100B5000A0932807D0932907C0932A07F0932B0767
:100B600030902707409028075090290760902A0767
:100B700070902B0720912207309123074091240782
:100B800050912507609126070E944768B0931D0782
:100B9000C0931E07D0931F07E0932007F09321070F
:100BA000B0917305A0917405D0917505D7DEAADECA
:100BB0000091400700934F070091410700935007B1
:100BC0000091420700935107009143070093520799
:100BD0000091440700935307009145070093540781
:100BE0000091460700935507009147070093560769
:100BF0000091480700935707009149070093580751
:100C0000B7DE00916D070093400700916E070093D7
:100C1000410700916F07009342070091700700930E
:100C200043070091710700934407009172070093F6
:100C300045070091730700934607009174070093DE
:100C400047070091750700934807009176070093C6
:100C50004907B0917005A0917105D09172057EDEB3
:100C600051DE00913B0700934F0700913C07009332
:100C7000500700913D070093510700913E070093F4
:100C8000520700913F0700935307009145070093D7
:100C900054070091460700935507009147070093BA
:100CA00056070091480700935707009149070093A2
:100CB00058075EDE00916D0700933B0700916E07B9
:100CC00000933C0700916F0700933D070091700768
:100CD00000933E070091710700933F070091720750
:100CE000009345070091730700934607009174072E
:100CF0000093470700917507009348070091760716
:100D000000934907B0916405A0916505D0916605EF
:100D100025DEF8DD00913B0700934F0700913C076B
:100D20000093500700913D070093510700913E0743
:100D30000093520700913F0700935307009140072B
:100D40000093540700914107009355070091420713
:100D500000935607009143070093570700914407FB
:100D60000093580705DE00916D0700933B07009143
:100D70006E0700933C0700916F0700933D070091B9
:100D8000700700933E070091710700933F070091A1
:100D90007207009340070091730700934107009189
:100DA0007407009342070091750700934307009171
:100DB000760700934407089530903B0740903C0726
:100DC00050903D0760903E0770903F0720913B0791
:100DD00030913C0740913D0750913E0760913F079D
:100DE0000E944768B0935907C0935A07D0935B0796
:100DF000E0935C07F0935D07309040074090410717
:100E0000509042076090430770904407209140073C
:100E10003091410740914207509143076091440748
:100E20000E944768B0935E07C0935F07D093600746
:100E3000E0936107F09362073090590740905A079A
:100E400050905B0760905C0770905D0720915E0793
:100E500030915F0740916007509161076091620790
:100E6000760E651E541E431E321E30925907409264
:100E70005A0750925B0760925C0770925D07309052
:100E8000450740904607509047076090480770908C
:100E900049072091450730914607409147075091F7
:100EA0004807609149070E944768B0935E07C09366
:100EB0005F07D0936007E0936107F093620730907B
:100EC000590740905A0750905B0760905C077090FC
:100ED0005D0720915E0730915F0740916007509158
:100EE000610760916207760E651E541E431E321E16
:100EF00030924A0740924B0750924C0760924D0740
:100F000070924E07089500913B0700936807009187
:100F10003C070093690700913D0700936A07009121
:100F20003E0700936B0700913F0700936C072ED09C
:100F30000091B7060093B1060091B8060093B2067F
:100F40000091B9060093B30600914007009368072B
:100F500000914107009369070091420700936A07D7
:100F60000091430700936B070091440700936C07BF
:100F70000DD00091B7060093B4060091B806009317
:100F8000B5060091B9060093B60608950AE50093E8
:100F90005E0700E000935F0700E00093600700E059
:100FA0000093610700E0009362073090680740906B
:100FB000690750906A0760906B0770906C072091EA
:100FC0005E0730915F074091600750916107609123
:100FD00062070E944768B0935907C0935A07D0939D
:100FE0005B07E0935C07F0935D07B0915907A09110
:100FF0005A07D0915B07C0915C07F0915D07AFDCA9
:10100000B093B706A093B806D093B90608950E948E
:10101000136601E00093AC0702E00093AD0700E027
:101020000093A80701E00093A907EF93FF93EAE973
:10103000F1E10E942864FF91EF91EEE8F0E00E9458
:10104000A366BB270E94CD6300E00093A807009031
:10105000A90709E0000E0092A907EF93FF93E8EAC1
:10106000F1E10E942864FF91EF910E94A3660E9423
:10107000CD6300E00093A8070090A90709E0000EE7
:101080000092A907EF93FF93E6EBF1E10E94286439
:10109000FF91EF910E94A3660E94CD6300E0009350
:1010A000A8070090A90709E0000E0092A907EF9396
:1010B000FF93E4ECF1E10E942864FF91EF910E941C
:1010C000A3660E94CD6300E00093A8070090A907E3
:1010D00009E0000E0092A907EF93FF93E2EDF1E122
:1010E0000E942864FF91EF910E94A3660E94CD6345
:1010F00000E00093A80709E30093A907EF93FF938B
:10110000E0EEF1E10E942864FF91EF91E6EFF1E15A
:1011100004E0019FE00DF11D05910093A8070591E2
:101120000093A90705910093AA0704910093AB07C8
:1011300000E00093AC070E9446630E94BE650E94D7
:101140008A66083009F40895043021F41A950AF4E7
:1011500014E05DCF023029F41395153009F410E046
:1011600056CF0130C9F4EEE8F0E001E0019FE00D58
:10117000F11D0E94A366C1E0D0E0E8E0F0E0B0E03D
:101180000E94F137A02DB12DEEE8F0E001E0019FC3
:10119000E00DF11D0E94AF663ACF526F6C6C2028B3
:1011A00041696C2920203A00506974636820284501
:1011B0006C6529203A005468726F74746C65202045
:1011C00020203A0059617720285275642920202078
:1011D0003A004155582020202020202020203A008D
:1011E0004241434B2050524556204E4558542043CF
:1011F00048414E4745004D0055094D0955124D12C5
:10120000551B4D1B55244D24552D00E000934005E2
:1012100000934105009342053091A5064091A60632
:101220005091A7066091400570914105809142055B
:1012300058174707360759F03091A5064091A60682
:10124000415030403093A5064093A6060895009182
:10125000CB0700231AF002E00093EF070091CC07C0
:1012600000231AF003E00093EF070091CD0700235D
:101270001AF004E00093EF070091CE0700231AF064
:1012800005E00093EF07089502E301B90AE004B90D
:101290000CEF07B902EF0AB90FEF00937E0005EFDC
:1012A00005B903E008B90DE00BB9ACE3B0E00E946A
:1012B00066660E947966023011F4A7E003C006302A
:1012C00039F4A3E003EF0AB90E94826E02EF0AB973
:1012D00000E00093800002E00093810000E00093B2
:1012E000820005E10093690007E00DBBEFECF0E040
:1012F0000E9401670093430800914308002322F4F1
:101300000FEF0093420806C0EEECF0E00E94016788
:1013100000934208002700932D0800932E080093A5
:101320002F08009330080093F40700932C08E6E997
:10133000F0E00E94CB6600933108013021F40FEFFA
:101340000093F40721C0023051F40FEF00932D08F1
:1013500000932E080093F40700932C0815C0033067
:1013600051F40FEF00932D0800932F080093F4071A
:1013700000932C0809C0043039F40FEF00933008B3
:101380000093F40700932C0800912C08002322F40A
:1013900002E00093680003C00AE00093680001E0E7
:1013A0000093730001E000936C000091B9000C7F82
:1013B0000093B90001E10093B8005D9A5C9A5E98D1
:1013C0002B9A299AA4EFB1E00E9466662B9829987F
:1013D0005E9AA4E6B0E00E9466660895089507EE5E
:1013E0000A95F1F708950E94136601E00093AC0797
:1013F00002E00093AD0700E00093A80709E0009326
:10140000A907EF93FF93E6E8F4E10E942864FF91B7
:10141000EF9100E00093A80703E10093A907EF9381
:10142000FF93E4E9F4E10E942864FF91EF9100E06A
:101430000093A8070DE10093A907EF93FF93E6EA55
:10144000F4E10E942864FF91EF910E94BE65A8EE2E
:10145000B3E00E94666608950E94F30900E00093DD
:10146000A80709E30093A907EF93FF93E8E7FAE9D8
:101470000E942864FF91EF910E94BE650E947966E8
:101480000830E1F7089548572056657220322E3112
:101490002E58000046572056657220312E313753A2
:1014A000312050726F0053746576656973000E9435
:1014B000136601E00093AC0702E00093AD0704E17E
:1014C0000093A80709E10093A907EF93FF93E4E1D4
:1014D000FEE10E942864FF91EF9100E00093A807CD
:1014E00009E30093A907EF93FF93E2E2FEE10E9474
:1014F0002864FF91EF910E94BE650E948A660130C8
:1015000009F008950027E0E0F0E00E9409670C94DC
:101510003F0000E000934005009341050093420521
:101520003091990640919A0650919B066091400532
:10153000709141058091420558174707360759F0C9
:101540003091990640919A06415030403093990667
:1015500040939A0603C000270093ED070090D80738
:101560001090DA0701200092E6070091E6070023B9
:10157000B2F5309196064091970641503040309335
:1015800096064093970600E00093400500934105BE
:101590000093420530919606409197065091980627
:1015A00060914005709141058091420558174707A9
:1015B0003607ACF403E00093960600E2009397062A
:1015C00000E0009398060FEF0093ED0700E0009312
:1015D000990604E100939A0600E000939B060090B0
:1015E000D8071090D90701240092E6070090D80789
:1015F0001090D80701200092D9070091E607002338
:101600003AF400E00093A8060093A9060093AA0606
:1016100000E00093400500E00093410501E00093E5
:1016200042053091A8064091A9065091AA06609102
:1016300040057091410580914205580F471F361FA4
:101640003093A8064093A9065093AA060DE700938D
:10165000400500E00093410500E000934205309111
:10166000A8064091A9065091AA0660914005709184
:1016700041058091420558174707360764F00091ED
:1016800040050093A806009141050093A90600912A
:1016900042050093AA060AE0009340050CEF009370
:1016A000410500E8009342053091A8064091A90643
:1016B0005091AA06609140057091410580914205C4
:1016C000581747073607B4F13091AB064091AC0686
:1016D000415030403093AB064093AC0600E000939D
:1016E000400500934105009342053091AB064091BF
:1016F000AC065091AD066091400570914105809116
:101700004205581747073607ACF407E00093AB06CD
:1017100000ED0093AC0600E00093AD060FEF0093E0
:10172000ED0701E00093990600E900939A0600E0B6
:1017300000939B060090ED071090EC0701280092A3
:10174000E6070090E6071090EE0701280092E607F2
:101750000091E607002312F029980895299A089528
:101760000F93CF93299AC2E30E946B662998CF9179
:101770000F910895402F2A2F3B2F0E94136601E0FE
:101780000093AC0705E00093AD07203049F00AE371
:101790000093A80700E00093A90702E00E942E64CE
:1017A000022F0B5F041749F00AE30093A80702E336
:1017B0000093A90703E00E942E6402E00093AD07A6
:1017C00008E00093A90715E0FE0104E1029FE00D87
:1017D000F11D00E00093A807A4E105910E942E648A
:1017E000AA95D9F70090A90708E0000E0092A90772
:1017F0001A9579F708E0039F002D095F0093A90768
:10180000075F0093AB0700E00093A8070FE7009382
:10181000AA0700E00093AC070E94466300E0009333
:10182000A80709E30093A907EF93FF93EEEBF8E114
:101830000E942864FF91EF910E94BE65AEE10E9474
:101840007966003011F0AA95D1F70E9479660030D0
:10185000E1F30E94B00B083019F4AA2788942BC03A
:10186000043061F4303019F03A950C945E0C20305D
:1018700019F02A950C945E0C0C945E0C023071F4F5
:10188000343019F033950C945E0C042F055020175A
:1018900019F023950C945E0C0C945E0C013071F4DD
:1018A0000E9413660E94BE650E9479660030E1F7CF
:1018B000A22FA30F0894C22FD32F08955ECF4241C9
:1018C000434B20205550202020444F574E20454E5A
:1018D0005445520030919A0540919B0550919C05CA
:1018E00060919D0570919E0580919F05581B470B47
:1018F000360B3093B5054093B6055093B70560910C
:10190000B5057091B6058091B70508E00E9429677A
:101910006093B5057093B6058093B70530919D052A
:1019200040919E0550919F056091B5057091B60557
:101930008091B705580F471F361F30939D05409380
:101940009E0550939F0530917B0640917C065091F7
:101950007D0660919D0570919E0580919F05581BA5
:10196000470B360B3093B5054093B6055093B7053A
:101970000AF455C06091B5057091B6058091B70520
:1019800002E00E9429676093B5057093B6058093C5
:10199000B70500E00093400500E10093410500E039
:1019A000009342053091B5054091B6055091B705B9
:1019B0006091400570914105809142055817470795
:1019C000360764F0009140050093B505009141058C
:1019D0000093B605009142050093B70530918D063E
:1019E00040918E0650918F066091B5057091B605B5
:1019F0008091B705580F471F361F30938D064093CF
:101A00008E0650938F06B0918D06A0918E06D091D0
:101A10008F06AA2322F00FEF0093EC07089500270A
:101A20000093EC0708950091D80700236AF13091E4
:101A3000AE064091AF06415030403093AE06409321
:101A4000AF0600E000934005009341050093420576
:101A50003091AE064091AF065091B00660914005BE
:101A6000709141058091420558174707360764F485
:101A70000FEF0093DE0701E00093AE0600E900934C
:101A8000AF0600E00093B0060090DF071090E1077A
:101A900001200092E6070090DF0700940092E8071B
:101AA0000090E8071090E20701200092E7070090FD
:101AB000E6071090E70701280092E0070091D80799
:101AC000002312F02B9808952B9A08951091C006C8
:101AD0002091C1063091C20640917506509176065C
:101AE000609177060E9438677093400580934105A6
:101AF00020924205009178060093660600917906CF
:101B00000093670600917A060093680630914005BD
:101B100040914105509142056091660670916706BB
:101B20008091680658174707360764F000916606EB
:101B300000934005009167060093410500916806F7
:101B40000093420560916606709167068091680671
:101B5000552744273327581B470B360B309366060F
:101B600040936706509368063091400540914105C7
:101B700050914205609166067091670680916806F3
:101B800058174707360764F400916606009340052E
:101B90000091670600934105009168060093420595
:101BA00030914F054091500550915105609140058D
:101BB0007091410580914205581B470B360B3093BD
:101BC0004F0540935005509351050895C4E8DCE15A
:101BD000A091B107B091B00704E10E94BA0BC09385
:101BE000B107D093B00708F008950E94136601E092
:101BF0000093AC0702E00093AD0704E10093A8074F
:101C000009E10093A907EF93FF93E4E1FEE10E944D
:101C10002864FF91EF9100E00093A80709E3009387
:101C2000A907EF93FF93E2E2FEE10E942864FF918F
:101C3000EF910E94BE650E948A66013009F0C6CF0E
:101C4000299AA0934008E8E3FEE100E40A9FE00D32
:101C5000F11DDF01C4E0D0E010E4FD010491FE01BC
:101C60000E94E366119621961A95B9F72998A091DA
:101C70004008EDEAF0E00E94AF660E9467270E94EC
:101C80008812A4CF53696E676C65436F7074657278
:101C900020324D203253202053696E676C65436FAC
:101CA0007074657220314D20345320204475616C6E
:101CB000436F707465722020202020202020202077
:101CC000547269436F7074657220536572766F2029
:101CD0004D342020547269436F70746572205365CF
:101CE00072766F204D37202059362020202020206A
:101CF00020202020202020202020202051756164D9
:101D0000726F436F70746572202B206D6F64652055
:101D100051756164726F436F707465722078206DC5
:101D20006F6465205838202020202020202020208B
:101D3000202B206D6F646520583820202020202023
:101D4000202020202078206D6F6465204865786110
:101D5000436F707465722020202B206D6F646520A6
:101D600048657861436F7074657220202078206D1B
:101D70006F6465204F63746F436F707465722020C9
:101D8000202B206D6F6465204F63746F436F7074F8
:101D9000657220202078206D6F64652048362020F1
:101DA0002020202020202020202020202020202033
:101DB00048382020202020202020202020202020E3
:101DC00020202020563620202020202020202020C7
:101DD00020202020202020205638202020202020B5
:101DE00020202020202020202020202059342020A6
:101DF00020202020202020202020202020202020E3
:101E0000562D5461696C2020202020202020202085
:101E10002020202041726520796F752073757265CE
:101E20003F0043414E43454C2020202020202020CD
:101E30002020202059455300640000640003000066
:101E40006400009C000300000064000032000000F9
:101E500000006400320000000000000000000000EC
:101E60000000000000000000000000000000000072
:101E700000000000000000006400000000030000FB
:101E8000006400643200000000006464320000005E
:101E9000009C00643200000000009C6432000000DE
:101EA0000000000000000000000000000000000032
:101EB0000000000000000000646400000003000057
:101EC000649C000000030000000064640000000047
:101ED00000009C6400000000000000000000000002
:101EE00000000000000000000000000000000000F2
:101EF000000000000000000064A9320000030000A0
:101F0000645732FF0003000064009C0000030000DF
:101F1000000000643200000000000000000000002B
:101F200000000000000000000000000000000000B1
:101F3000000000000000000064A93200000300005F
:101F4000645732FF0003000064009C00000300009F
:101F50000000000000000000000000000000000081
:101F600000000000000000000000006432000000DB
:101F7000000000000000000064A9326400030000BB
:101F800064A9329C0003000064573264000300001F
:101F90006457329C0003000064009C64000300004E
:101FA00064009C9C00030000000000000000000092
:101FB00000000000000000006400646400030000F2
:101FC0006464009C0003000064009C640003000043
:101FD000649C009C00030000000000000000000062
:101FE00000000000000000000000000000000000F1
:101FF000000000000000000064B947640003000016
:102000006447479C000300006447B9640003000074
:1020100064B9B99C0003000000000000000000004B
:1020200000000000000000000000000000000000B0
:102030000000000000000000640064640003000071
:102040006400649C000300006464006400030000FA
:102050006464009C0003000064009C6400030000B2
:1020600064009C9C00030000649C0064000300006A
:10207000649C009C0003000064B9476400030000F6
:1020800064B9479C000300006447476400030000F4
:102090006447479C000300006447B96400030000E4
:1020A0006447B99C0003000064B9B96400030000F0
:1020B00064B9B99C0003000064006464000300007C
:1020C0006457329C000300006457CE640003000094
:1020D00064009C9C0003000064A9CE64000300001F
:1020E00064A9329C00030000000000000000000012
:1020F000000000000000000064325764000300008C
:102100006464009C000300006432A96400030000C2
:1021100064CEA99C00030000649C006400030000DE
:1021200064CE579C00030000000000000000000087
:102130000000000000000000640064640003000070
:102140006447479C000300006464006400030000CF
:102150006447B99C0003000064009C640003000015
:1021600064B9B99C00030000649C00640003000093
:1021700064B9479C0003000064265C64000300000F
:10218000645C269C00030000645CDA6400030000C9
:102190006426A49C0003000064DAA4640003000029
:1021A00064A4DA9C0003000064A426640003000019
:1021B00064DA5C9C0003000064474764000300008D
:1021C0006447009C000300006447B96400030000FA
:1021D00064B9B99C0003000064B900640003000006
:1021E00064B9479C000300000000000000000000EC
:1021F0000000000000000000644747640003000086
:102200006447189C000300006447E8640003000072
:102210006447B99C0003000064B9B964000300007E
:1022200064B9E89C0003000064B91864000300006E
:1022300064B9479C00030000646447640003000025
:102240006447009C00030000642AB9640003000096
:1022500064D6B99C0003000064B900640003000068
:10226000649C479C00030000000000000000000088
:1022700000000000000000006464476400030000E8
:102280006451189C00030000643DE86400030000F2
:10229000642AB99C0003000064D6B96400030000FE
:1022A00064C3E89C0003000064AF186400030000EE
:1022B000649C479C0003000064B94764000300006D
:1022C0006447479C0003000064009C640003000016
:1022D00064009C9C0003000000000000000000005F
:1022E00000000000000000000000000000000000EE
:1022F000000000000000000064B947000003000077
:10230000644747FF000300007800A6640003000054
:102310007800A69C00030000000000000000000000
:1023200000000000000000000000000000000000AD
:1023300000000000000000000E94136601E000930E
:10234000AC0702E00093AD0700E00093A80701E0AE
:102350000093A907EF93FF93E2EAF4E20E94286456
:10236000FF91EF91E2E7F0E00E9495660E94CD6355
:1023700000E00093A8070090A90709E0000E009272
:10238000A907EF93FF93ECEAF4E20E942864FF911F
:10239000EF910E9495660E94CD6300E00093A8072C
:1023A0000090A9070CE0000E0092A907EF93FF939D
:1023B000E6EBF4E20E942864FF91EF910E9495669B
:1023C0000E94CD6300E00093A8070090A90709E0F0
:1023D000000E0092A907EF93FF93E8ECF4E20E944D
:1023E0002864FF91EF910E9495660E94CD6300E002
:1023F0000093A80709E30093A907EF93FF93EAED81
:10240000F4E20E942864FF91EF91E0EFF4E204E02F
:10241000019FE00DF11D05910093A8070591009320
:10242000A90705910093AA0704910093AB0700E068
:102430000093AC070E9446630E94BE650E948A66B4
:10244000083009F40895043021F41A950AF413E0D1
:1024500073CF023029F41395143009F410E06CCFD7
:102460000130F1F4E2E7F0E002E0019FE00DF11D40
:10247000EF93FF930E949566E0E0F5E204E0019F90
:10248000E00DF11DC591D59105901590E02DF12D30
:102490000E94F137A02DB12DFF91EF910E949C6613
:1024A0004BCF50204761696E20203A0050206C6964
:1024B0006D6974203A00414343205472696D205283
:1024C0006F6C6C20203A0000414343205472696DC8
:1024D000205069746368203A00004241434B205009
:1024E000524556204E455854204348414E474500DA
:1024F00035004F0935094F125F157F1E5F1E7F277C
:102500000000007D0000007D18FCE80318FCE803D3
:1025100044240E94136600E00093A80700E00093A3
:10252000A90702E00093AD0701E00093AC07EF9329
:10253000FF93E0E3F9E20E942864FF91EF914420C9
:10254000A1F4EF93FF93E8E3F9E20E942864FF917E
:10255000EF910FEF602E08E0802E55240E94EA12C2
:1025600053948A948820D1F709C0542C5A94A42DEE
:10257000BB270E94CD6366240E94EA1202E000930A
:10258000AD0701E00093AC0700E00093A80709E362
:102590000093A907EF93FF93E4E4F9E20E94286413
:1025A000FF91EF910E94BE650E948A66083009F48F
:1025B0000895043031F4439409E0401609F44424AA
:1025C000A8CF023031F44A94442012F408E0402E9F
:1025D000A0CF9FCFE0E0F5E008E0059DE00DF11D04
:1025E00001E00093AC070FEF702EDD27A181BB2720
:1025F000AA2312F4DFEFBFEFB0931B06A0931C06D3
:10260000D0931D0600E00093400500934105009320
:10261000420530911B0640911C0650911D066091A9
:1026200040057091410580914205581747073607CC
:1026300009F0772400E00093400500E00093410595
:1026400000E40093420510911B0620911C06309176
:102650001D064091400550914105609142050E9440
:10266000386770931B0680931C0620921D0600E0BD
:102670000093400500E60093410500E00093420509
:1026800030911B0640911C0650911D06609140053B
:102690007091410580914205580F471F361F3093B6
:1026A0001B0640931C0650931D06B0911B06A0917B
:1026B0001C06D0911D06A093A807DD27A281BB2789
:1026C000AA2312F4DFEFBFEFB0931B06A0931C0602
:1026D000D0931D0600E00093400500934105009350
:1026E000420530911B0640911C0650911D066091D9
:1026F00040057091410580914205581747073607FC
:1027000009F077240FEF009340050FEF0093410588
:1027100000EC0093420510911B0620911C0630919D
:102720001D064091400550914105609142050E946F
:10273000386770931B0680931C0620921D0600E0EC
:102740000093400500E20093410500E0009342053C
:1027500030911B0640911C0650911D06609140056A
:102760007091410580914205580F471F361F3093E5
:102770001B0640931C0650931D06B0911B06A091AA
:102780001C06D0911D06A093A907DD27A081BB27B9
:10279000AA2312F4DFEFBFEFB0931B06A0931C0631
:1027A000D0931D0600E0009340050093410500937F
:1027B000420530911B0640911C0650911D06609108
:1027C000400570914105809142055817470736072B
:1027D00009F07724A381AA2309F07724772092F4C3
:1027E00066200AF4089502E40093A8070BE1009321
:1027F000A907EF93FF93E8E2F9E20E942864FF91B2
:10280000EF910895A581A0FD11C0662072F002E449
:102810000093A8070BE10093A907EF93FF93ECE364
:10282000F9E20E942864FF91EF91089500E6009379
:10283000AA0700E20093AB070E94EA640091A80790
:1028400004500093A8070091A90707500093A90717
:1028500005E00093AD0704E0A381AA230AF005E098
:102860000E942E640091A8070E500093A8070090C4
:10287000A90705E0000E0092A90700E00093AD074C
:1028800000E00093AC07052D0E942E6466200AF438
:102890004AC002E00093AD0701E00093AC0700E0FE
:1028A0000093A8070FE00093A907EF93FF93E8E5D3
:1028B000F9E20E942864FF91EF9100E00093A807DD
:1028C00008E10093A907EF93FF93E2E6F9E20E9483
:1028D0002864FF91EF9100E00093A80701E20093C4
:1028E000A907EF93FF93ECE6F9E20E942864FF91B9
:1028F000EF9100E00093A8070AE20093A907A381E3
:10290000AA234AF0EF93FF93E0E5F9E20E942864DE
:10291000FF91EF9108C0EF93FF93E4E5F9E20E9485
:102920002864FF91EF910895556E757365642E00CC
:102930004D6F746F723A2000414C4C0053657276B3
:102940006F2E00004241434B20204E45585400005A
:102950004357000043435700446972656374696FCD
:102960006E007365656E2066726F6D0061626F76D2
:10297000653A00000BE60093A40720E80E942C6350
:10298000A2E3B0E00E9466660BE60093A40721E094
:102990000E942C630AE10093A407E4EAF0E00E949D
:1029A000CB6600933608202F0E942C630BE1009326
:1029B000A407E2EAF0E00E94CB6600933208202FE1
:1029C0000E942C630CE10093A407E3EAF0E00E946C
:1029D000CB6600933308202F0E942C63A2E3B0E063
:1029E0000E94666608950AE10093A4070E945C6154
:1029F000009336080BE10093A4070E945C610093EA
:102A000032080CE10093A4070E945C610093330834
:102A100008950E94136601E00093AC0702E0009362
:102A2000AD0701E00093A80709E10093A907EF9320
:102A3000FF93E0E5FCE20E942864FF91EF9100E043
:102A40000093A8070E94BE6500E00093D10700E054
:102A50000093D20701E00093D40708E00093D30766
:102A60000FEF0093D80700E00093930601E0009376
:102A7000940600E0009395062B9A06E006BB0E94A0
:102A8000CB470E94915300270093DA0700E00093A0
:102A9000400508EC0093410500E0009342053091A9
:102AA0004F0540915005509151056091400570913E
:102AB000410580914205581B470B360B309340056A
:102AC000409341055093420500E000936606009351
:102AD000670600936806309140054091410550918A
:102AE00042056091660670916706809168065817E6
:102AF000470736073CF400E000934005009341058A
:102B00000093420500E00093660606E00093670626
:102B100000E0009368061091400520914105309136
:102B200042054091660650916706609168060E94D2
:102B3000386770934005809341052092420500E07C
:102B40000093660608E5009367060CEC00936806A0
:102B500030914005409141055091420560916606D3
:102B60007091670680916806580F471F361F309393
:102B70004005409341055093420500914005009364
:102B80001E060091410500931F0600914205009327
:102B90002006009140050093210600914105009315
:102BA0002206009142050093230600914005009300
:102BB00024060091410500932506009142050093EB
:102BC00026060091400500932706009141050093D9
:102BD00028060091420500932906009140050093C4
:102BE0002A060091410500932B06009142050093AF
:102BF0002C060091400500932D060091410500939D
:102C00002E060091420500932F0600914005009387
:102C10003006009141050093310600914205009372
:102C20003206009140050093330600914105009360
:102C3000340600914205009335060E94504803B1C6
:102C4000009502950F70093009F419CF2B9808955B
:102C50005468726F74746C6520706173732D74683E
:102C6000726F75676800E0E0F0E00E9401673196DE
:102C7000093181F40E9401673196033059F40E94B2
:102C800001673196033731F40E94016731960731AD
:102C900009F408950027009342080E9461160FEF7F
:102CA000009342080E94611615E00E94B00BC0E03C
:102CB0000E946B661A95C9F70E94A85F0E94E60DF4
:102CC0000895E0E0F0E009E10E94E366319603E058
:102CD0000E94E366319603E70E94E366319607E1BE
:102CE0000E94E3663196A4E0B0E0CEE8DFE210E4B3
:102CF000FE010491FD010E94E366119621961A954A
:102D0000B9F7A4E4B0E0CEECDFE218E1FE010491F3
:102D1000FD010E94E366119621961A95B9F7A6E87F
:102D2000B0E0C6EEDFE218E0FE010491FD010E9472
:102D3000E366119621961A95B9F7AAE0B0E0EAE7A2
:102D4000F0E00E949C66A4E2B0E0E0E7F0E00E94C0
:102D50009C66ABE4B0E0E2E7F0E00E949C66A4E190
:102D6000B0E0E4E7F0E00E949C66A0E0B0E0ECE7B1
:102D7000F0E00E949C66AEE1B0E0EEE7F0E00E9479
:102D80009C66A0E0B0E0E0E8F0E00E949C66A2E370
:102D9000B0E0E2E8F0E00E949C66A8E0B0E0E4E881
:102DA000F0E00E949C66A0E0B0E0E6E7F0E00E9460
:102DB0009C66A0E0B0E0E8E7F0E00E949C66A1E03D
:102DC000B0E0EEE8F0E00E94AF66A2E0B0E0EFE82D
:102DD000F0E00E94AF66A3E0B0E0E0E9F0E00E941E
:102DE000AF66A4E0B0E0E1E9F0E00E94AF66A5E0E4
:102DF000B0E0E2E9F0E00E94AF66A0E0B0E0E9E90F
:102E0000F0E00E949C66A2E3B0E0EBE9F0E00E94F3
:102E10009C66A0E0B0E0EDE9F0E00E949C66A2E3D1
:102E2000B0E0EFE9F0E00E949C66AA27E3E9F0E059
:102E30000E94AF660FEFA02FE4E9F0E00E94AF66BA
:102E40000FEFA02FE5E9F0E00E94AF66AA27E6E9C0
:102E5000F0E00E94AF66A8E0B0E0E2EAF0E00E9495
:102E6000AF66A8E0B0E0E3EAF0E00E94AF66A0E061
:102E7000B0E0E4EAF0E00E94AF66A1E0B0E0E5EA8D
:102E8000F0E00E94AF66AA27E6EAF0E00E94AF6693
:102E9000AA27ECEAF0E00E94AF66AA27E1EAF0E098
:102EA0000E94AF660FEFA02FEEECF0E00E94AF663D
:102EB000AA27EFECF0E00E94AF66AA27E7EAF0E06D
:102EC0000E94AF66AA27E8EAF0E00E94AF660FEF23
:102ED000A02FE8E9F0E00E94AF66AA27E9EAF0E057
:102EE0000E94AF66AA27E7E9F0E00E94AF66AFEF65
:102EF000EDEAF0E00E94AF66A0E0B0E0EAEAF0E0C0
:102F00000E949C66A0E0B0E0EEEAF0E00E949C66C1
:102F1000E2EBF0E00E949C66E6EBF0E00E949C662B
:102F2000EAEBF0E00E949C66EEEBF0E00E949C660B
:102F3000E2ECF0E00E949C66E6ECF0E00E949C6609
:102F4000EAECF0E00E949C66A4E6B0E0E0EBF0E082
:102F50000E949C66E4EBF0E00E949C66E8EBF0E0E7
:102F60000E949C66ECEBF0E00E949C66E0ECF0E0D6
:102F70000E949C66E4ECF0E00E949C66E8ECF0E0C5
:102F80000E949C66ECECF0E00E949C6608950000B4
:102F90000000000000000000000000000000000031
:102FA0000000000000000000000000000000000021
:102FB0000000000000000000000000000000000011
:102FC00000000000000000000000000000004100C0
:102FD00064001E001400410064001E001400410043
:102FE000140032000A001E001E002D005A000E942C
:102FF000136601E00093AC0702E00093AD0700E028
:103000000093A80701E00093A907EF93FF93E0E284
:10301000F6E30E942864FF91EF9100E00093A80777
:103020000090A90709E0000E0092A907EF93FF9313
:10303000E6E3F6E30E942864FF91EF9100E000933D
:10304000A8070090A90709E0000E0092A907EF93D6
:10305000FF93EAE4F6E30E942864FF91EF9100E019
:103060000093A8070090A90709E0000E0092A907A5
:10307000EF93FF93EAE5F6E30E942864FF91EF9156
:1030800000E00093A8070090A90709E0000E009255
:10309000A907EF93FF93E0E7F6E30E942864FF910E
:1030A000EF9100E00093A8070090A90709E0000E47
:1030B0000092A907EF93FF93E2E8F6E30E942864E9
:1030C000FF91EF9100E00093A80709E30093A9079F
:1030D000EF93FF93EAE0F6E30E942864FF91EF91FB
:1030E0000E94BE650E948A660130E1F7A5E3B0E068
:1030F0000E94136600E00093A80701E00093A9076F
:10310000EF93FF93E8E9F6E30E942864FF91EF91C3
:1031100000E00093A8070090A90709E0000E0092C4
:10312000A907EF93FF93E6EAF6E30E942864FF9174
:10313000EF9100E00093A8070090A90709E0000EB6
:103140000092A907EF93FF93E6EBF6E30E94286451
:10315000FF91EF9100E00093A8070090A90709E014
:10316000000E0092A907EF93FF93E0ECF6E30E94B4
:103170002864FF91EF9100E00093A8070090A90751
:1031800009E0000E0092A907EF93FF93EEECF6E33F
:103190000E942864FF91EF9100E00093A80700903F
:1031A000A90709E0000E0092A907EF93FF93ECED49
:1031B000F6E30E942864FF91EF9108E70093A807C7
:1031C00001E00093A9070A2F0E942E6405E50093F1
:1031D000A80709E0B09F002D065F0093A907EF93B1
:1031E000FF93EAEEF6E30E942864FF91EF910E94BC
:1031F000BE65D7E0C0E00E946B66DA95D9F7B3955B
:10320000B53009F075CFB0E0AA95AF3209F070CFB4
:103210000E94136609E10093A80709E10093A9073A
:10322000EF93FF93EEEEF6E30E942864FF91EF9197
:103230000E94BE65C0E00E946B66E0E100E0009382
:1032400088050093890500938A0500E000938B05AB
:1032500000938C0500938D0500E000938E0500938C
:103260008F05009390050E94CA60309188054091B7
:10327000890550918A0560917F0570918005809144
:103280008105580F471F361F3093880540938905E5
:1032900050938A0530918B0540918C0550918D0596
:1032A000609182057091830580918405580F471FB6
:1032B000361F30938B0540938C0550938D053091CC
:1032C0008E0540918F055091900560918505709114
:1032D000860580918705580F471F361F30938E054E
:1032E00040938F0550939005C4E60E946B66EA9563
:1032F00009F0B9CF609188057091890580918A05A0
:1033000004E00E9429676093880570938905809383
:103310008A0560918B0570918C0580918D0504E084
:103320000E94296760938B0570938C0580938D05AF
:1033300060918E0570918F058091900504E00E9448
:10334000296760938E0570938F0580939005D8E26E
:10335000C0E00E946B66DA95D9F70E9413660FEF02
:103360000093E50700E00093A8070AE00093A9078F
:10337000EF93FF93E4E6F1EC0E942864FF91EF9154
:10338000B0918805A0918905D0918A050E94CD63EE
:103390000E94816000E00093A80703E10093A90761
:1033A000EF93FF93EEE6F1EC0E942864FF91EF911A
:1033B000B0918B05A0918C05D0918D050E94CD63B5
:1033C0000E94816000E00093A8070CE10093A90728
:1033D000EF93FF93E8E7F1EC0E942864FF91EF91EF
:1033E000B0918E05A0918F05D09190050E94CD637C
:1033F0000E94816000E00093A80709E30093A907F9
:10340000EF93FF93EAE0F6E30E942864FF91EF91C7
:103410000E94BE650091E507002322F5EDE5F0E08E
:10342000B0918805A0918905D0918A050E94C16656
:10343000B0918B05A0918C05D0918D050E94C1663D
:10344000B0918E05A0918F05D09190050E94C16624
:10345000E1EAF0E00FEF002F0E94E36600E0009346
:10346000EF0708C0E1EAF0E000270E94E36601E010
:103470000093EF070E948A660130E1F70E9413660D
:103480000091E50700230AF40FC000E00093A807AD
:1034900009E10093A907EF93FF93EEEFF6E30E9493
:1034A0002864FF91EF910EC000E00093A80709E1A6
:1034B0000093A907EF93FF93E2E1F7E30E942864EA
:1034C000FF91EF9100E00093A80709E30093A9079B
:1034D000EF93FF93EAE0F6E30E942864FF91EF91F7
:1034E0000E94BE650E948A660130E1F70895E0E11E
:1034F00000E000936705009368050093690500E00C
:1035000000936A0500936B0500936C0500E000933F
:103510006D0500936E0500936F050E94CA6030919F
:103520006705409168055091690560915E0570914D
:103530005F0580916005580F471F361F3093670560
:10354000409368055093690530916A0540916B0579
:1035500050916C05609161057091620580916305E1
:10356000580F471F361F30936A0540936B055093E1
:103570006C0530916D0540916E0550916F0560911D
:1035800064057091650580916605580F471F361FC9
:1035900030936D0540936E0550936F05C4E60E940D
:1035A0006B66EA9509F0B9CF60916705709168057F
:1035B0008091690504E00E94296760936705709314
:1035C00068058093690560916A0570916B0580912B
:1035D0006C0504E00E94296760936A0570936B058F
:1035E00080936C0560916D0570916E0580916F05FB
:1035F00004E00E94296760936D0570936E058093C7
:103600006F050FEF0093F60708952020202020205B
:1036100020202020202020434F4E54494E55450065
:10362000506C6163652074686520616972637261C2
:103630006674206F6E0061206C6576656C20737512
:10364000726661636520616E6400707265737320D9
:10365000434F4E54494E55452E005468652046430D
:103660002077696C6C207468656E207761697400DE
:10367000352073656320746F206C657420746865F1
:103680000000616972637261667420736574746CA2
:103690006520646F776E2E0020202020206C6461EE
:1036A0002023243335006C6F6C3A2073746120241E
:1036B0003034323700002020202020736563000062
:1036C000202020202073626320232430310020201A
:1036D000202020636D7020232432660020202020CB
:1036E00020626E65206C6F6C00003C2D2D004361E4
:1036F0006C6962726174696E672E2E2E00004361E0
:103700006C6962726174696F6E206661696C656470
:103710002E0043616C6962726174696F6E2073750B
:1037200063636565646564000E941366E5E9F0E023
:103730000E94A366AA2362F0E8E9F0E00E94A36673
:10374000AA2332F40FEFA02FE5E9F0E00E94AF6664
:1037500001E00093AC0702E00093AD0700E00093A6
:10376000A80701E00093A907EF93FF93E6E7FAE3C8
:103770000E942864FF91EF91E3E9F0E00E94A366C4
:10378000AA234AF4EF93FF93E6EFFAE30E9428643A
:10379000FF91EF9108C0EF93FF93ECEFFAE30E94E3
:1037A0002864FF91EF9100E00093A8070AE00093DE
:1037B000A907EF93FF93E6E8FAE30E942864FF91DC
:1037C000EF910E94A366AA234AF4EF93FF93E0E0EF
:1037D000FBE30E942864FF91EF9108C0EF93FF93F1
:1037E000E4E0FBE30E942864FF91EF9100E0009386
:1037F000A80703E10093A907EF93FF93E8E9FAE331
:103800000E942864FF91EF910E94A366AA234AF4C4
:10381000EF93FF93E0E0FBE30E942864FF91EF91B8
:1038200008C0EF93FF93E4E0FBE30E942864FF915C
:10383000EF9100E00093A8070CE10093A907EF9334
:10384000FF93E8EAFAE30E942864FF91EF910E9457
:10385000A366A0933108A03049F4EF93FF93E8E00A
:10386000FBE30E942864FF91EF9140C0A13049F42E
:10387000EF93FF93ECE0FBE30E942864FF91EF914C
:103880001EC0A23049F4EF93FF93E2E1FBE30E94F4
:103890002864FF91EF9113C0A33049F4EF93FF9395
:1038A000E8E1FBE30E942864FF91EF9108C0EF93E9
:1038B000FF93EEE1FBE30E942864FF91EF9100E0AB
:1038C0000093A80705E20093A907EF93FF93E8EBA5
:1038D000FAE30E942864FF91EF91EF93FF93E0E0F9
:1038E000FBE30E942864FF91EF9125C000E0009364
:1038F000A80705E20093A907EF93FF93E8EBFAE32B
:103900000E942864FF91EF91E7E9F0E00E94A3662E
:10391000AA234AF4EF93FF93E0E0FBE30E942864BC
:10392000FF91EF9108C0EF93FF93E4E0FBE30E9467
:103930002864FF91EF9100E00093A8070EE2009346
:10394000A907EF93FF93E8ECFAE30E942864FF9144
:10395000EF91E8E9F0E00E94A366AA234AF4EF930E
:10396000FF93E0E0FBE30E942864FF91EF9108C021
:10397000EF93FF93E4E0FBE30E942864FF91EF9153
:1039800000E00093A80709E30093A907EF93FF93D2
:10399000ECEDFAE30E942864FF91EF91E4E2FBE38F
:1039A00004E0019FE00DF11D05910093A80705912A
:1039B0000093A90705910093AA0704910093AB0710
:1039C00000E00093AC070E9446630E94BE650E941F
:1039D0008A660830F1F4E4E9F0E00E94CB660093D7
:1039E000D507E6E9F0E00E94A366A03059F0E7E9C8
:1039F000F0E00E94A366AA232AF4AA27E7E9F0E0F0
:103A00000E94AF66E7E9F0E00E94CB6600933B08B6
:103A10000895043021F41A950AF415E085CE023099
:103A200029F41395163009F410E07ECE013011F51B
:103A3000133071F400913108039505300CF000E06B
:103A400000933108A02FE6E9F0E00E94AF666CCE4B
:103A5000E3E9F0E001E0019FE00DF11D0E94A366A3
:103A600000E8A027E3E9F0E001E0019FE00DF11D8F
:103A70000E94AF6659CE53656C662D4C6576656CB9
:103A800020203A2000004C696E6B20526F6C6C2035
:103A900050697463683A20004175746F20446973FB
:103AA00061726D203A200000526563656976657227
:103AB000202020203A2000004368616E6E656C2053
:103AC0004D6170203A2000004C6F7374204D6F647C
:103AD000656C20416C61726D3A2000004241434B9D
:103AE0002050524556204E455854204348414E4799
:103AF00045004F6E0000537469636B0041555800D8
:103B0000596573004E6F0000537464004350504D6C
:103B1000000044534D32000044534D5800005342BE
:103B2000757300005300720964097A125312681BFE
:103B3000531B6D245324682D6A2D7F360E94136613
:103B400001E00093AC0702E00093AD0700E00093B2
:103B5000A80701E00093A907EF93FF93ECEDFCE3C6
:103B60000E942864FF91EF91EAE7F0E00E949566D9
:103B70000E94CD6300E00093A8070AE00093A90724
:103B8000EF93FF93EEEEFCE30E942864FF91EF9128
:103B90000E9495660E94CD6300E00093A80703E1B0
:103BA0000093A907EF93FF93E0E0FDE30E942864F0
:103BB000FF91EF910E9495660E94CD6300E0009313
:103BC000A8070CE10093A907EF93FF93E2E1FDE35F
:103BD0000E942864FF91EF910E9495660E94CD6338
:103BE00000E00093A80705E20093A907EF93FF9375
:103BF000E4E2FDE30E942864FF91EF910E94956644
:103C00000E94CD6300E00093A8070EE20093A9078D
:103C1000EF93FF93E6E3FDE30E942864FF91EF91A9
:103C20000E9495660E94CD6300E00093A80709E317
:103C30000093A907EF93FF93E8E4FDE30E94286453
:103C4000FF91EF91EEE5FDE304E0019FE00DF11D32
:103C500005910093A80705910093A907059100938A
:103C6000AA0704910093AB0700E00093AC070E9401
:103C700046630E94BE650E948A66083009F4089572
:103C8000043021F41A950AF415E058CF023029F4D3
:103C90001395163009F410E051CF0130F1F4EAE742
:103CA000F0E002E0019FE00DF11DEF93FF930E9411
:103CB0009566E6E7FDE304E0019FE00DF11DC59187
:103CC000D59105901590E02DF12D0E94F137A02D92
:103CD000B12DFF91EF910E949C6630CF4D696E69C6
:103CE0006D756D207468726F74746C653A00486508
:103CF000696768742044616D70656E696E673A002B
:103D000048656967687420442E204C696D69742089
:103D10003A00416C61726D20312F313020766F6C2A
:103D200074733A00536572766F2066696C746572BD
:103D3000202020203A004163632053572066696C9D
:103D40007465722020203A004241434B2050524576
:103D500056204E455854204348414E474500650083
:103D60007F0965097F1265127F1B651B7F2465240F
:103D70007F2D652D7F36000014000000F401000047
:103D80001E000000007D00006400040040000E944E
:103D9000136601E00093AC0702E00093AD0700E07A
:103DA0000093A80701E00093A907EF93FF93E6EFC4
:103DB000FEE30E942864FF91EF9100E00093A807C2
:103DC0000EE00093A907EF93FF93E4E0FFE30E9466
:103DD0002864FF91EF91E6E8F0E00E9495660E946A
:103DE000CD6300E00093A80707E10093A907EF93D4
:103DF000FF93E2E1FFE30E942864FF91EF910E94AC
:103E000095660E94CD6300E00093A80700E200934E
:103E1000A907EF93FF93E0E2FFE30E942864FF917C
:103E2000EF910E9495660E94CD6300E00093A80781
:103E300009E20093A907EF93FF93EEE2FFE30E94EC
:103E40002864FF91EF910E9495660E94CD6300E087
:103E50000093A80709E30093A907EF93FF93ECE30E
:103E6000FFE30E942864FF91EF91E2E5FFE304E0A5
:103E7000019FE00DF11D05910093A80705910093A6
:103E8000A90705910093AA0704910093AB0700E0EE
:103E90000093AC070E9446630E94BE650E948A663A
:103EA000083009F40895043021F41A950AF413E057
:103EB0006ECF023029F41395143009F410E067CF67
:103EC0000130C1F4E6E8F0E002E0019FE00DF11DF1
:103ED0000E949566C0E0D0E0E0E0FDE70E94F13787
:103EE000A02DB12DE6E8F0E002E0019FE00DF11D0C
:103EF0000E949C664CCF537469636B205363616C62
:103F0000696E6700526F6C6C202841696C29202013
:103F10003A0050697463682028456C6529203A008E
:103F20005961772028527564292020203A0054686E
:103F3000726F74746C65202020203A004241434B1C
:103F40002050524556204E455854204348414E4734
:103F500045004D0D6E164D166E1F4D1F6E284D28D7
:103F60006E310E94136601E00093AC0702E00093FB
:103F7000AD0706E00093A80704E00093A907EF93BC
:103F8000FF93EEE0F4E40E942864FF91EF9106E0D5
:103F90000093A8070DE00093A907EF93FF93E2E2D7
:103FA000F4E40E942864FF91EF9106E00093A807D3
:103FB00006E10093A907EF93FF93E6E3F4E40E9480
:103FC0002864FF91EF9100E00093A80709E30093B4
:103FD000A907EF93FF93E0E9F3E40E942864FF91BF
:103FE000EF910E94BE650E948A66083009F4089528
:103FF000013011F00C94B11F0E94F31400913208AB
:1040000008710695069506950093320800913308CD
:1040100008710695069506950093330800933408B9
:104020000091360807700093360810E00E9413666E
:1040300001E00093AC0702E00093AD0700E00093BD
:10404000A80701E00093A907EF93FF93EAE4F3E4E4
:104050000E942864FF91EF9104E60093A807009165
:104060003208003041F4EF93FF93EAECF3E40E944E
:104070002864FF91EF91013041F4EF93FF93EEEC50
:10408000F3E40E942864FF91EF91023041F4EF9332
:10409000FF93E2EDF3E40E942864FF91EF91033077
:1040A00041F4EF93FF93E8EDF3E40E942864FF915D
:1040B000EF9100E00093A8070AE00093A907EF93AF
:1040C000FF93EAE5F3E40E942864FF91EF9104E690
:1040D0000093A80700913308003041F4EF93FF9359
:1040E000EEEDF3E40E942864FF91EF91013041F47A
:1040F000EF93FF93E0EEF3E40E942864FF91EF91C9
:10410000023041F4EF93FF93E2EEF3E40E9428645F
:10411000FF91EF91033041F4EF93FF93E4EEF3E46A
:104120000E942864FF91EF9100E00093A80703E14B
:104130000093A907EF93FF93EAE6F3E40E94286453
:10414000FF91EF9104E60093A80700913608003034
:1041500041F4EF93FF93E8EEF3E40E942864FF91AB
:10416000EF91013041F4EF93FF93ECEEF3E40E9402
:104170002864FF91EF91023041F4EF93FF93E0EF59
:10418000F3E40E942864FF91EF91033041F4EF9330
:10419000FF93E4EFF3E40E942864FF91EF91043071
:1041A00041F4EF93FF93E8EFF3E40E942864FF915A
:1041B000EF91053041F4EF93FF93ECEFF3E40E94AD
:1041C0002864FF91EF91063041F4EF93FF93E0E014
:1041D000F4E40E942864FF91EF910090330810905E
:1041E0003408011409F422C001E00093AC070FE089
:1041F0000093A80707E20093A907EF93FF93E6EA6D
:10420000F3E40E942864FF91EF9100E00093AC0773
:1042100000E00093A80705E20093A9070FE70093C9
:10422000AA0700E30093AB070E94466301E00093F6
:10423000AC0700E00093A80708E30093A907EF93F9
:10424000FF93EAE7F3E40E942864FF91EF91E2E034
:10425000F4E404E0019FE00DF11D05910093A8072F
:1042600005910093A90705910093AA070491009373
:10427000AB0700E00093AC070E9446630E94BE6556
:104280000E948A66083009F42BC0043021F41A9584
:104290000AF412E0CBCE023029F41395133009F45E
:1042A00010E0C4CE0130D9F4103031F4009132085E
:1042B0000395037000933208113031F400913308F4
:1042C0000395037000933308123049F400913608C7
:1042D00003950770073009F400E000933608A6CE76
:1042E00000913208000F000F000F00933208009178
:1042F000330800933508000F000F000F00933308B8
:104300000091360800933608A0913208E2EAF0E006
:104310000E94AF66A09133080E94AF66A091360854
:104320000E94AF660E94BA140E94ED6800903508A2
:1043300010903408011409F40895AA27E1EAF0E086
:104340000E94AF660E94F71708954779726F202880
:104350006465672F736563293A00416363202020F9
:1043600020282B2F2D2067293A0046696C7465722E
:104370002020202028487A293A004241434B2050EF
:10438000524556204E455854204348414E4745001B
:104390004241434B202020202020202020434F4E0C
:1043A00054494E5545004163632043616C206F6E54
:1043B0002065786974210000202020202020202002
:1043C00020202020202020200000323530003530F1
:1043D00030003130303000003230303000003200F8
:1043E00034003800313600003235360031383800BC
:1043F0003938000034320000323000003130000023
:10440000350064007C0964097C1264127C1B20570F
:1044100061726E696E672C206368616E67696E6792
:10442000200074686573652073657474696E672015
:104430002077696C6C00616666656374205026495C
:104440002073657474696E6773000FEF0093F30750
:104450000E94136601E00093AC0704E00093AD07EF
:104460000091D80700237AF402E20093A80706E13E
:104470000093A907EF93FF93ECEFFAE40E942864FE
:10448000FF91EF9124C3009141080023F2F000E076
:104490000093A9070091EF07013064F406E200934E
:1044A000A807EF93FF93E0EFFAE40E942864FF91DE
:1044B000EF910BC002E20093A807EF93FF93E6EFA2
:1044C000FAE40E942864FF91EF910091D80700233D
:1044D0008AF000E00093A80709E30093A90702E02F
:1044E0000093AD07EF93FF93EAEDFAE40E9428648E
:1044F000FF91EF9100E00093A80700E00093A90767
:10450000009141080023AAF40091EF0701304CF418
:10451000EF93FF93ECE1FCE40E942864FF91EF919C
:1045200008C0EF93FF93E6E0FCE40E942864FF914B
:10453000EF910091D80700230AF4AEC2009143081E
:104540000023FAF40DE60093A80700E00093A90702
:1045500002E00093AD070091E00700234AF0EF93DB
:10456000FF93EAE4FBE40E942864FF91EF9127C0E7
:10457000EF93FF93EEE4FBE40E942864FF91EF9138
:104580001EC003E70093A80700E00093A90702E01C
:104590000093AD070091420800234AF0EF93FF9388
:1045A000E6E4FBE40E942864FF91EF9108C0EF93DA
:1045B000FF93E2E4FBE40E942864FF91EF9100E0A6
:1045C0000093A80702E10093A90702E00093AD075A
:1045D000EF93FF93E2E0FBE40E942864FF91EF91E8
:1045E0000090E00700940092E6070090E607109024
:1045F000440801280092E7070090450810904308FE
:1046000001200092E8070090E7071090E8070128D2
:104610000092E6070091E60700234AF0EF93FF932C
:10462000E2E1FBE40E942864FF91EF9108C0EF9360
:10463000FF93E6E1FBE40E942864FF91EF9100E024
:104640000093A8070BE10093A907E2E3FCE40091C3
:10465000EF07000FE00F0027F01FA591B491FD01B7
:104660000E94286400E0009340050DE0009341059E
:1046700000E40093420510919A0520919B0530912A
:104680009C054091400550914105609142050E9472
:10469000386770934005809341052092420500E001
:1046A0000093660608E00093670600E00093680642
:1046B0003091400540914105509142056091660658
:1046C0007091670680916806580F471F361F309318
:1046D000400540934105509342056091400570911B
:1046E00041058091420509E00E94296760934005D9
:1046F000709341058093420500E00093660600E058
:104700000093670600E000936806309140054091F1
:10471000410550914205609166067091670680914F
:1047200068065817470736074CF400E00093400529
:1047300000E00093410500E00093420500E0009393
:10474000A80704E20093A90702E00093AD07EF93E6
:10475000FF93EAE1FBE40E942864FF91EF910CE1F2
:104760000093A807B0914005A0914105D091420562
:104770000E94CD630EE20E942E64AD2FBB27B09342
:104780004005A0934105D093420500E000936606E2
:1047900000E0009367060AE0009368061091400568
:1047A000209141053091420540916606509167067F
:1047B000609168060E9438677093400580934105B8
:1047C0002092420500E0009366060AE00093670627
:1047D00000E00093680630914005409141055091FA
:1047E00042056091660670916706809168065817C9
:1047F00047073607F1F400E00093660601E00093F6
:10480000670600E00093680630914005409141053D
:104810005091420560916606709167068091680626
:10482000581B470B360B309340054093410550937E
:104830004205B0914005A0914105D09142050E94EA
:10484000CD6306E50E942E640CE30093A80704E202
:104850000093A90702E00093AD07EF93FF93E0E216
:10486000FBE40E942864FF91EF9100E30093400570
:1048700004E80093410503E3009342053091A0054D
:104880004091A1055091A2056091400570914105AC
:1048900080914205580F471F361F309340054093C3
:1048A00041055093420500E00093660601E0009345
:1048B000670601E8009368061091400520914105C4
:1048C00030914205409166065091670660916806F6
:1048D0000E943867709340058093410520924205FD
:1048E00060914005709141058091420509E00E9468
:1048F0002967609340057093410580934205B0910C
:104900004005A0914105D09142050E94CD630EE281
:104910000E942E64AD2FBB27B0934005A0934105A4
:10492000D093420500E00093660600E0009367061E
:104930000AE00093680610914005209141053091EE
:1049400042054091660650916706609168060E9494
:10495000386770934005809341052092420500E03E
:10496000009366060AE00093670600E0009368067D
:104970003091400540914105509142056091660695
:104980007091670680916806581747073607F1F45B
:1049900000E00093660601E00093670600E00093E4
:1049A0006806309140054091410550914205609163
:1049B00066067091670680916806581B470B360B98
:1049C000309340054093410550934205B091400516
:1049D000A0914105D09142050E94CD6303E40E945D
:1049E0002E6400E00093A8070DE20093A907EF935F
:1049F000FF93E6E2FBE40E942864FF91EF91B091FF
:104A0000B106A091B206D091B3060091F60700233B
:104A100012F40E94CD6300E00093A80706E3009320
:104A2000A907EF93FF93E4E3FBE40E942864FF915E
:104A3000EF91B091B406A091B506D091B606009161
:104A4000F607002312F40E94CD6300E00093A8074C
:104A500000E00093A90700E00093400502E0009306
:104A6000410500E0009342053091DB064091DC06F1
:104A70005091DD066091400570914105809142059D
:104A800058174707360744F0B091DB06A091DC06C3
:104A9000D091DD060E94CD63009141080023BAF455
:104AA000009140080F3F99F0A02FE4E8FCE104E1F9
:104AB0000A9FE00DF11D00E00093A80709E00093B4
:104AC000A907B3E105910E942E64BA95DAF70E9416
:104AD000BE6500270093F3070895202020202020A2
:104AE00020202020202020202020204D454E550031
:104AF000423A3D3C00003C41414041003A413E3C8D
:104B00003B0053656C662D6C6576656C206973207F
:104B100000004F4E00004F464600426174743A0058
:104B200054656D703A0020526F6C6C20416E676C5A
:104B3000653A0000506974636820416E676C653A9D
:104B400000005031000050320000504931005049FF
:104B500032004F4B2E004572726F723A2043616CE7
:104B60006962726174652041434320004572726F2F
:104B7000723A206E6F20526F6C6C20696E70757483
:104B800020004572726F723A206E6F205069746314
:104B90006820696E707574004572726F723A206E8B
:104BA0006F205468726F20696E70757420004572B2
:104BB000726F723A206E6F2059617720696E70753E
:104BC000742020004572726F723A206E6F2041553A
:104BD0005820696E7075742020004572726F723AA9
:104BE0002053616E69747920636865636B202000CF
:104BF0004572726F72204E6F204D6F746F72204C31
:104C000061796F75740020202020202020204552DB
:104C1000524F522020202020202020002020202021
:104C200020202020534146452020202020202020E5
:104C30002000524B564B6C4B824B984BAE4BC44BA7
:104C4000DA4BF04B0090DA071090F1070120009248
:104C5000E6070090E6071090D80701200092E607CB
:104C60000091E607002342F000E00093A2060093C3
:104C7000A3060093A4063AC03091A2064091A30671
:104C800001E0400F0027301F3093A2064093A30697
:104C90000FE10093400500E40093410500E000931C
:104CA00042053091A2064091A3065091A40660915E
:104CB0004005709141058091420558174707360716
:104CC000A9F400E00093A2060093A3060093A406B3
:104CD00000270093D8070FEF0093DE070091F2073B
:104CE00000231AF40FEF0093EE0708950091DA07FE
:104CF000002392F50EEF009340050CE00093410570
:104D000000E00093420530915205409153055091C7
:104D100054056091400570914105809142055817F6
:104D200047073607ECF001E00093400504EF0093DD
:104D3000410500E000934205309152054091530532
:104D40005091540560914005709141058091420554
:104D500058174707360724F400E00093DB0708954F
:104D60000091DB0703950093DB070091DB070F3F02
:104D700009F0ACC0B0915205A0915305D0915405F3
:104D8000BB232AF40091EF07003011F008953EC0D4
:104D90000FEF0093D80700270093EE0701E0009380
:104DA00099060CE200939A0600E000939B060E948D
:104DB000771A00E00093DB060093DC060093DD0623
:104DC00000E000933B0700933C0700933D070093EE
:104DD0003E0700933F0700E0009340070093410720
:104DE00000934207009343070093440701E00093B8
:104DF000450700E00093460700E00093470700E006
:104E00000093480700E0009349070FC00027009374
:104E1000D80700270093EE0700E00093990606E903
:104E200000939A0600E000939B060FEF0093ED07B6
:104E30000FEF0093DE0703E00093960600E2009375
:104E4000970600E00093980600E00093A206009306
:104E5000A3060093A40601E00093400504EF00932D
:104E6000410500E0009342053091490540914A0513
:104E700050914B056091400570914105809142052C
:104E8000581747073607D4F40EEF009340050CE09F
:104E90000093410500E0009342053091490540919F
:104EA0004A0550914B0560914005709141058091F4
:104EB00042055817470736072CF008C00FEF00933C
:104EC000E10704C000270093E10700C00895EFEC5C
:104ED000F0E00E940167009343080091430800231B
:104EE00022F40FEF0093420806C0EEECF0E00E94BF
:104EF00001670093420810E4A0E0B5E0E4E0F0E0D0
:104F00000E94CB660D9331961A95D1F7E4E4F0E058
:104F10000E943F2F009140050093B8050091410584
:104F20000093B905009142050093BA050E943F2FF6
:104F30000E945F2F009140050093C105009141053B
:104F40000093C205009142050093C3050E943F2FC4
:104F50000E942F2F009140050093CA050091410542
:104F60000093CB05009142050093CC050E943F2F92
:104F70000E945F2F009140050093D30500914105E9
:104F80000093D405009142050093D5050E943F2F60
:104F9000009140050093BB05009141050093BC05BD
:104FA000009142050093BD050E943F2F0E945F2F94
:104FB000009140050093C405009141050093C5058B
:104FC000009142050093C6050E943F2F0E942F2F9B
:104FD000009140050093CD05009141050093CE0559
:104FE000009142050093CF050E943F2F0E945F2F42
:104FF000009140050093D605009141050093D70527
:10500000009142050093D8050E943F2F0091400572
:105010000093BE05009141050093BF050091420534
:105020000093C0050E943F2F0E945F2F0091400512
:105030000093C705009141050093C8050091420502
:105040000093C9050E943F2F0E942F2F0091400519
:105050000093D005009141050093D10500914205D0
:105060000093D2050E943F2F0E945F2F00914005C0
:105070000093D905009141050093DA05009142059E
:105080000093DB05E4E4F0E00E944F2F009140051F
:105090000093DC05009141050093DD050091420578
:1050A0000093DE050E944F2F0E945F2F0091400564
:1050B0000093E505009141050093E6050091420546
:1050C0000093E7050E944F2F0E942F2F009140056B
:1050D0000093EE05009141050093EF050091420514
:1050E0000093F0050E944F2F0E945F2F0091400512
:1050F0000093F705009141050093F80500914205E2
:105100000093F9050E944F2F009140050093DF05A1
:10511000009141050093E005009142050093E105EF
:105120000E944F2F0E945F2F009140050093E805D9
:10513000009141050093E905009142050093EA05BD
:105140000E944F2F0E942F2F009140050093F105E0
:10515000009141050093F205009142050093F3058B
:105160000E944F2F0E945F2F009140050093FA0587
:10517000009141050093FB05009142050093FC0559
:105180000E944F2F009140050093E20500914105D8
:105190000093E305009142050093E4050E944F2F20
:1051A0000E945F2F009140050093EB05009141059F
:1051B0000093EC05009142050093ED050E944F2FEE
:1051C0000E942F2F009140050093F40500914105A6
:1051D0000093F505009142050093F6050E944F2FBC
:1051E0000E945F2F009140050093FD05009141054D
:1051F0000093FE05009142050093FF0518E0E0E0F2
:10520000F5E00581889401FD0894A795889400FD38
:105210000894B79538961A95A1F7A093D107B09343
:10522000D20708E0009340050CEA0093410500E036
:105230000093420500E00093E907EF93FF9330915C
:1052400040054091410550914205E6E3F6E060914A
:10525000E90703E0609FE00DF11D31934193519305
:10526000FF91EF910091E90703950093E907009101
:10527000E907083011F7EAE7F0E00E943F2F00E06D
:10528000009366060CE20093670606E60093680644
:1052900010914005209141053091420540916606EC
:1052A00050916706609168060E9438677093000607
:1052B0008093010620920206E6E8F0E00E943F2F6C
:1052C0000E942F2F00914005009303060091410595
:1052D000009304060091420500930506E8E8F0E01B
:1052E0000E943F2F0E942F2F009140050093060639
:1052F00000914105009307060091420500930806BE
:10530000EAE8F0E00E943F2F0E942F2F0091400515
:10531000009309060091410500930A060091420599
:1053200000930B06ECE8F0E00E943F2F0E942F2F25
:105330000091400500930C060091410500930D0675
:105340000091420500930E06E6E8F0E00E944F2F20
:105350000E942F2F0091400500930F0600914105F8
:10536000009310060091420500931106E8E8F0E072
:105370000E944F2F0E942F2F00914005009312068C
:105380000091410500931306009142050093140615
:10539000EAE8F0E00E944F2F0E942F2F0091400575
:1053A00000931506009141050093160600914205F1
:1053B00000931706ECE8F0E00E944F2F0E942F2F79
:1053C00000914005009318060091410500931906CD
:1053D0000091420500931A06E2E8F0E00E943F2F98
:1053E00000E00093660604E60093670600E0009381
:1053F0006806309166064091670650916806609194
:1054000040057091410580914205581B470B360BB2
:1054100030939306409394065093950660919306BB
:10542000709194068091950607E00E942967609329
:1054300093067093940680939506E2E7F0E00E944D
:105440003F2F0091400500936906009141050093AC
:105450006A060091420500936B06002700934408FA
:1054600000E0009340050093410500934205309110
:10547000690640916A0650916B06609140057091F3
:1054800041058091420558174707360719F40FEF79
:1054900000934408E4E7F0E00E943F2F00E000930F
:1054A00066060AE00093670600E000936806109124
:1054B000400520914105309142054091660650918A
:1054C0006706609168060E94386770936C06809347
:1054D0006D0620926E06E2E7F0E00E944F2F0091E9
:1054E000400500936F0600914105009370060091FE
:1054F00042050093710600270093450800E00093E1
:105500004005009341050093420530916F0640919C
:10551000700650917106609140057091410580912F
:10552000420558174707360719F40FEF009345084F
:10553000E4E7F0E00E944F2F00E0009366060AE0E7
:105540000093670600E000936806109140052091E3
:105550004105309142054091660650916706609181
:1055600068060E94386770937206809373062092D3
:105570007406ECE7F0E00E943F2F00914005009395
:10558000750600914105009376060091420500934F
:105590007706EEE7F0E00E943F2F0E945F2F009118
:1055A000400500937806009141050093790600912B
:1055B000420500937A06EAEAF0E00E943F2F00E0FD
:1055C0000093660604E00093670600E00093680617
:1055D00010914005209141053091420540916606A9
:1055E00050916706609168060E9438677093DE06E6
:1055F0008093DF062092E006E0E8F0E00E943F2F73
:1056000000E00093660603E0009367060DED00934B
:105610006806109140052091410530914205409166
:10562000660650916706609168060E94386770931D
:105630007B0680937C0620927D0630917B0640910C
:105640007C0650917D066091DE067091DF068091A8
:10565000E006580F471F361F30937B0640937C06A9
:1056600050937D06E4E8F0E00E943F2F60914005F2
:10567000709141058091420508E00E94296760937E
:1056800040057093410580934205009140050093C9
:105690007E060091410500937F060091420500932C
:1056A0008006E6E7F0E00E943F2F60914005709190
:1056B00041058091420503E00E94296760934005FF
:1056C00070934105809342050091400500939C062C
:1056D0000091410500939D060091420500939E06AE
:1056E000E8E7F0E00E943F2F60914005709141058E
:1056F0008091420503E00E94296760934005709302
:105700004105809342050091400500939F0600915A
:1057100041050093A006009142050093A106E9E926
:10572000F0E00E943F2F0E942F2F00914005009330
:10573000C306009141050093C40600914205009301
:10574000C506EBE9F0E00E943F2F0E947D2F0091FB
:1057500040050093C606009141050093C7060091DD
:1057600042050093C806EDE9F0E00E943F2F0E9439
:105770002F2F009140050093C90600914105009329
:10578000CA06009142050093CB06EFE9F0E00E94C3
:105790003F2F0E947D2F009140050093CC06009181
:1057A00041050093CD06009142050093CE06EDE53C
:1057B000F0E00E94B766B0938805A0938905D09366
:1057C0008A050E94B766B0938B05A0938C05D09391
:1057D0008D050E94B766B0938E05A0938F05D09378
:1057E0009005E3E9F0E00E94CB660093DF07E4E96F
:1057F000F0E00E94CB660093D507E5E9F0E00E9457
:10580000CB660093F10701E00093D40705E0009315
:10581000D3070FEF0093DE0700270093F30700275D
:105820000093D80700270093D9070AEF0093D00709
:1058300000E00093E40700E00093A2060093A306B3
:105840000093A40603E000939D050FEF00939E05CF
:1058500000E000939F0500E00093990600939A06EC
:1058600000939B0600E00093960600939706009332
:10587000980600E00093A8060093A9060093AA06E4
:1058800000E00093AB060093AC060093AD06002742
:105890000093ED0700270093EC0700270093F5071E
:1058A00000270093F60700E00093AE060093AF06D2
:1058B0000093B00600E000933B0700933C07009381
:1058C0003D0700933E0700933F0700E00093400729
:1058D0000093410700934207009343070093440756
:1058E00001E00093450700E00093460700E00093C5
:1058F000470700E00093480700E00093490700E0F5
:105900000093B1060093B2060093B30600E0009343
:10591000B4060093B5060093B606009133080871EB
:105920000695069506950330BCF40230B4F40130B8
:10593000ACF400E00093D50600E80093D60600E042
:105940000093D70600E00093D80600E00093D90644
:1059500004E50093DA063AC027C013C000E00093C4
:10596000D50600E40093D60600E00093D70600E0D9
:105970000093D80600E00093D90608EA0093DA06FF
:1059800025C000E00093D50600E20093D60600E0B3
:105990000093D70600E00093D80601E00093D906F3
:1059A00001E50093DA0612C000E00093D50600E19D
:1059B0000093D60600E00093D70600E00093D806D7
:1059C00002E00093D90603EA0093DA0601E00093AF
:1059D000220704ED0093230700E80093240708E45E
:1059E0000093250706E60093260700913208087108
:1059F00006950695069503302CF402303CF40130F0
:105A00004CF40CC004E000933D080BC002E000938E
:105A10003D0807C001E000933D0803C000E000938B
:105A20003D08ECEAF0E00E94CB6600933C08E5EA12
:105A3000F0E00E94CB6600933708E6EAF0E00E94AF
:105A4000CB6600933808E7EAF0E00E94CB6600934B
:105A50003908E8EAF0E00E94CB6600933A08E8E9EA
:105A6000F0E00E94CB660093F207E7E9F0E00E94C5
:105A7000CB6600933B08E9EAF0E00E94CB66009316
:105A80004108EEEAF0E00091D20706950093EA079C
:105A9000A0F400E00093E10600E00093E20600E0DD
:105AA0000093E30602E00093E4060BE20093E506B0
:105AB00000E00093E606349620C00E943F2F0E942B
:105AC0009B2F009140050093E10600914105009352
:105AD000E206009142050093E3060E943F2F0E94D8
